:100000000C9446000C9458000C9458000C94580022
:100010000C9458000C9458000C9458000C94580000
:100020000C9458000C9458000C9458000C945800F0
:100030000C9458000C9458000C9458000C949400A4
:100040000C9458000C9458000C9458000C945800D0
:100050000C9458000C9458000C9458000C945800C0
:100060000C9458000C9458000C9458000C945800B0
:100070000C9458000C9458000C9458000C945800A0
:100080000C9458000C9458000C94580011241FBE76
:10009000CFEFD0E1DEBFCDBF21E0A0E0B1E001C0F5
:1000A0001D92A530B207E1F70E94CE000C94FF002C
:1000B0000C9400008FEF8ABB82E381BF8FE083BF87
:1000C00082E087BF789408956F7020E1829FC0011D
:1000D0001124862B80688BBB0895CF93DF93EC01AE
:1000E000E1E0F1E02AE030E0B9010E94EB0080831A
:1000F000CB01B9010E94EB008183CE0164E670E080
:100100000E94EB00CB01B9010E94EB008283CE017B
:1001100068EE73E00E94EB00CB01B9010E94EB0096
:100120008383DF91CF9108951F920F920FB60F92A4
:1001300011240BB60F922F933F934F935F936F93BE
:100140007F938F939F93AF93BF93EF93FF93809190
:100150000001843010F01092000180910001E82F1E
:10016000F0E0EF5FFE4F60810E946400809100012B
:100170008F5F80930001FF91EF91BF91AF919F91AD
:100180008F917F916F915F914F913F912F910F9040
:100190000BBE0F900FBE0F901F90189580EF87BB7E
:1001A0000E945A0081EE90E10E946D00C49A2FEFE8
:1001B00089E698E1215080409040E1F700C00000BE
:1001C000C4982FEF89E698E1215080409040E1F7F4
:1001D00000C00000EBCFAA1BBB1B51E107C0AA1F48
:1001E000BB1FA617B70710F0A61BB70B881F991FD8
:1001F0005A95A9F780959095BC01CD010895F89482
:02020000FFCF2E
:00000001FF
