:100000000C9446000C9465000C9465000C946500FB
:100010000C9465000C9465000C9465000C946500CC
:100020000C9465000C9465000C9465000C946500BC
:100030000C9465000C9465000C9465000C94CB0B3B
:100040000C9465000C9465000C94D3030C9465002B
:100050000C9465000C9465000C9465000C9465008C
:100060000C9465000C9465000C9465000C9465007C
:100070000C9465000C9465000C940D040C946500C0
:100080000C9465000C9465000C94650011241FBE4F
:10009000CFEFD0E1DEBFCDBF11E0A0E0B1E0EAE1FB
:1000A000FEE100E00BBF02C007900D92A832B1073D
:1000B000D9F721E0A8E2B1E001C01D92AE32B2074B
:1000C000E1F70E941F0D0C940B0F0C940000CF93CE
:1000D000DF9300D000D0CDB7DEB79B838A836C83DB
:1000E0008C81843608F456C09C8189E2989F812DCA
:1000F000112482958F7089838C8199E2899F912D3B
:100100001124292F22952F7094E6299F902D1124D8
:10011000891B8C838A819B819C012F5F3F4F3B838E
:100120002A832981205DFC0120839C818DEC989F8E
:10013000812D112486958695869589839C818DECE9
:10014000989F812D1124869586958695880F282F56
:10015000220F220F820FF92FF81B8F2F8C838A8199
:100160009B819C012F5F3F4F3B832A832981205D28
:10017000FC0120838A819B819C012F5F3F4F3B8341
:100180002A832C81205DFC0120838A819B81FC01D4
:10019000108247C08C818A30A8F19C818DEC989F99
:1001A000812D112486958695869589839C818DEC79
:1001B000989F812D1124869586958695880F282FE6
:1001C000220F220F820FF92FF81B8F2F8C838A8129
:1001D0009B819C012F5F3F4F3B832A832981205DB8
:1001E000FC0120838A819B819C012F5F3F4F3B83D1
:1001F0002A832C81205DFC0120838A819B81FC0164
:1002000010820FC08A819B819C012F5F3F4F3B83EF
:100210002A832C81205DFC0120838A819B81FC0143
:1002200010820F900F900F900F90DF91CF91089553
:100230000F931F93CF93DF93CDB7DEB76F970FB6B2
:10024000F894DEBF0FBECDBF9F838E83488759874A
:100250006A877B8788859985AA85BB858F3F9105AD
:10026000A105B10509F008F494C084E690E0A0E08F
:10027000B0E089839A83AB83BC8382E08D831DC009
:100280008D818F5F8D8389819A81AB81BC81880F3D
:10029000991FAA1FBB1F9C01AD01220F331F441FD2
:1002A000551F220F331F441F551F820F931FA41F7A
:1002B000B51F89839A83AB83BC8388859985AA857A
:1002C000BB8529813A814B815C81BC01CD010E94B3
:1002D000CE0DDA01C9010097A105B10589F6898122
:1002E0009A81AB81BC812AE030E040E050E0BC0163
:1002F000CD010E94CE0DDA01C90189839A83AB83B7
:10030000BC833BC00E811F81C80101969F838E83F1
:1003100088859985AA85BB8529813A814B815C8135
:10032000BC01CD010E94CE0DDA01C901805DF8014A
:10033000808388859985AA85BB8529813A814B81EF
:100340005C81BC01CD010E94CE0DDC01CB01888710
:100350009987AA87BB8789819A81AB81BC812AE072
:1003600030E040E050E0BC01CD010E94CE0DDA014A
:10037000C90189839A83AB83BC838D819FEF980FDA
:100380009D83882309F0BECF8E819F81FC0110825E
:1003900007C028858E819F81622F0E946700000020
:1003A0006F960FB6F894DEBF0FBECDBFDF91CF9131
:1003B0001F910F910895CF93DF9300D000D0CDB758
:1003C000DEB79A8389837C836B838B819C8199239D
:1003D0002CF589819A812DE2FC0120838B819C81FF
:1003E00001979C838B838B819C81809590959C83C6
:1003F0008B838B819C819F779C838B838B819C815A
:10040000AA2797FDA095BA2F29813A812F5F3F4FE8
:10041000AC01BD01C9010E9418010DC08B819C81F6
:10042000AA2797FDA095BA2F29813A81AC01BD0179
:10043000C9010E9418010F900F900F900F90DF914B
:10044000CF910895CF93DF93CDB7DEB727970FB63F
:10045000F894DEBF0FBECDBF9F838E838E819F81B8
:100460000E9478028D838D818150682F8AE00E94DE
:1004700097029A8389831C821B828E819F819C01B3
:100480002F5F3F4F3F832E83FC018081992787FD9B
:100490009095C097AC0129813A81429FC001439F4A
:1004A000900D529F900D11242B813C81820F931F40
:1004B0009C838B8389819A819C01ADECBCEC0E946A
:1004C000F00D9695879596958795969587959A833D
:1004D000898389819A81009781F68B819C812796F7
:1004E0000FB6F894DEBF0FBECDBFDF91CF91089558
:1004F000CF93DF9300D01F92CDB7DEB79B838A8363
:10050000198203C089818F5F89838A819B819C01C5
:100510002F5F3F4F3B832A83FC018081882391F723
:1005200089810F900F900F90DF91CF910895CF9315
:10053000DF9300D000D0CDB7DEB78B836C8381E032
:1005400090E09A8389830EC08B81282F30E0498107
:100550005A81429FC001439F900D529F900D1124DC
:100560009A8389838C819FEF980F9C83882361F7FE
:1005700089819A810F900F900F900F90DF91CF910A
:100580000895CF93DF9300D0CDB7DEB79A838983E8
:1005900089E290E02981FC01208380E990E02981B3
:1005A0003A81232F3327FC0120838AE290E028E15F
:1005B000FC01208385E990E026E0FC0120830F9078
:1005C0000F90DF91CF910895CF93DF9300D0CDB7F7
:1005D000DEB79A83898389E990E02981FC01208331
:1005E00088E990E029813A81232F3327FC01208379
:1005F0008AE990E028E1FC0120838DE990E026E083
:10060000FC0120830F900F90DF91CF910895CF933D
:10061000DF931F92CDB7DEB789838CE290E029810A
:10062000FC01208300008BE290E0FC018081882F98
:1006300090E0807299270097B1F30F90DF91CF91EE
:100640000895CF93DF931F92CDB7DEB789838CE9EE
:1006500090E02981FC01208300008BE990E0FC01FF
:100660008081882F90E0807299270097B1F30F90D6
:10067000DF91CF910895CF93DF93CDB7DEB7000020
:100680008BE290E0FC0180818823D4F78CE290E03B
:10069000FC018081DF91CF910895CF93DF93CDB797
:1006A000DEB700008BE990E0FC0180818823D4F75D
:1006B0008CE990E0FC018081DF91CF910895CF9388
:1006C000DF9300D0CDB7DEB79A8389830BC08981D1
:1006D0009A819C012F5F3F4F3A832983FC018081DF
:1006E0000E94070389819A81FC018081882379F720
:1006F0000F900F90DF91CF910895CF93DF9300D0AB
:10070000CDB7DEB79A8389830BC089819A819C011A
:100710002F5F3F4F3A832983FC0180810E94210390
:1007200089819A81FC018081882379F70F900F904D
:10073000DF91CF910895CF93DF9300D0CDB7DEB78F
:100740009A8389838AE290E02AE230E0F9012081ED
:100750002068FC012083789489819A8190932D01EF
:1007600080932C010F900F90DF91CF910895CF933C
:10077000DF9300D0CDB7DEB79A8389838AE990E012
:100780002AE930E0F90120812068FC012083789477
:1007900089819A8190932B0180932A010F900F9069
:1007A000DF91CF9108951F920F9200905F000F92FA
:1007B000112400905B000F922F933F934F935F9310
:1007C0006F937F938F939F93AF93BF93EF93FF9319
:1007D000CF93DF93CDB7DEB720912C0130912D015F
:1007E0008CE290E0FC018081F9010995DF91CF91C5
:1007F000FF91EF91BF91AF919F918F917F916F91F9
:100800005F914F913F912F910F9000925B000F905D
:1008100000925F000F901F9018951F920F9200900A
:100820005F000F92112400905B000F922F933F9373
:100830004F935F936F937F938F939F93AF93BF93E8
:10084000EF93FF93CF93DF93CDB7DEB720912A01CB
:1008500030912B018CE990E0FC018081F901099530
:10086000DF91CF91FF91EF91BF91AF919F918F91C8
:100870007F916F915F914F913F912F910F900092D7
:100880005B000F9000925F000F901F901895CF9320
:10089000DF93CDB7DEB784E390E028E7FC01208347
:1008A000DF91CF910895CF93DF93CDB7DEB76E97E9
:1008B0000FB6F894DEBF0FBECDBF83E0898385E31A
:1008C00090E0298131E0320F3983422F50E021E05E
:1008D00030E002C0220F331F4A95E2F7FC0120836B
:1008E00080E090E0A0EAB0E48B839C83AD83BE837C
:1008F00020E030E04AE755E46B817C818D819E8168
:100900000E94800EDC01CB018F839887A987BA876C
:1009100020E030E040E85FE36F81788589859A8543
:100920000E94FF0D88232CF481E090E09C878B8748
:100930003FC020E03FEF4FE757E46F81788589851E
:100940009A850E947C0E18164CF520E030E040E2BB
:1009500051E46B817C818D819E810E94800EDC013F
:10096000CB01BC01CD010E94030EDC01CB019C87B1
:100970008B870FC080E991E09E878D878D859E854E
:100980000197F1F79E878D878B859C8501979C87C2
:100990008B878B859C85009769F714C06F8178855C
:1009A00089859A850E94030EDC01CB019C878B8789
:1009B0008B859C85988B8F878F8598890197F1F718
:1009C000988B8F8783E390E0FC0180818F778A8307
:1009D0008981873010F083E089838A81882F90E0B5
:1009E000877099278730910509F469CF000083E368
:1009F00090E0FC018081882F90E0877099278730F4
:100A00009105A9F780E090E0A8E4B2E4898B9A8B85
:100A1000AB8BBC8B20E030E04AE755E469897A89EA
:100A20008B899C890E94800EDC01CB018D8B9E8B73
:100A3000AF8BB88F20E030E040E85FE36D897E89BE
:100A40008F89988D0E94FF0D88232CF481E090E01F
:100A50009A8F898F3FC020E03FEF4FE757E46D89C1
:100A60007E898F89988D0E947C0E18164CF520E0A7
:100A700030E040E251E469897A898B899C890E943F
:100A8000800EDC01CB01BC01CD010E94030EDC0114
:100A9000CB019A8F898F0FC080E991E09C8F8B8F5B
:100AA0008B8D9C8D0197F1F79C8F8B8F898D9A8D03
:100AB00001979A8F898F898D9A8D009769F714C055
:100AC0006D897E898F89988D0E94030EDC01CB0190
:100AD0009A8F898F898D9A8D9E8F8D8F8D8D9E8D0A
:100AE0000197F1F79E8F8D8F8A816E960FB6F894DD
:100AF000DEBF0FBECDBFDF91CF910895CF93DF93BF
:100B0000CDB7DEB761970FB6F894DEBF0FBECDBF8D
:100B1000988B8F87698B8CE0E4E0F1E0DE0113961F
:100B200001900D928A95E1F78CE0898337C00E948D
:100B300053048A832BC08981882F90E09E012D5F0A
:100B40003F4F820F931FFC0190818A819817F1F427
:100B500089818A3031F48F8598892AE2FC012083CB
:100B600010C089818B3031F48F85988923E2FC0194
:100B7000208307C0898120E3280F8F859889FC0195
:100B800020838F8598890196988B8F8789819FEF25
:100B9000980F9983882379F68CE0898389899FEF60
:100BA000980F998B882319F661960FB6F894DEBFDB
:100BB0000FBECDBFDF91CF910895CF93DF93CDB717
:100BC000DEB72F970FB6F894DEBF0FBECDBF8CE017
:100BD000E4E0F1E0DE01149601900D928A95E1F7D0
:100BE0008CE089831A820E9453048B831CC0898104
:100BF000882F90E09E012C5F3F4F820F931FFC01D6
:100C000090818B81981779F489818A3019F48AE26E
:100C10008A8309C089818B3019F483E28A8303C0F7
:100C20008981805D8A8389819FEF980F99838823CA
:100C3000F1F68A812F960FB6F894DEBF0FBECDBFB6
:100C4000DF91CF910895CF93DF93CDB7DEB72E9785
:100C50000FB6F894DEBF0FBECDBF9E878D87198279
:100C60001B821A8281E090E09D838C830E94DD05C7
:100C70008E838E818A33D0F48E818033B8F089815F
:100C800091E0980F9983882F90E09E01295F3F4F54
:100C9000820F931F2E81FC0120838D859E850097F6
:100CA00029F02D853E858E81F90109958E8183324B
:100CB00019F089818630D0F28981815089838981B8
:100CC000882F90E09E01295F3F4F820F931FFC0108
:100CD0008081882F90E0C097AC012C813D81429F9C
:100CE000C001439F900D529F900D11242A813B819A
:100CF000820F931F9B838A838C819D81880F991F0C
:100D00009C01220F331F220F331F820F931F9D83DD
:100D10008C838981882381F68A819B812E960FB6E8
:100D2000F894DEBF0FBECDBFDF91CF910895CF9372
:100D3000DF93CDB7DEB72F970FB6F894DEBF0FBEA7
:100D4000CDBF8F8782E690E022E630E0F901208176
:100D50002D7FFC0120838F850E94800980E090E038
:100D6000A0E0B0E489839A83AB83BC8320E030E0C9
:100D70004AE755E469817A818B819C810E94800ECB
:100D8000DC01CB018D839E83AF83B88720E030E008
:100D900040E85FE36D817E818F8198850E94FF0D21
:100DA00088232CF481E090E09A8789873FC020E077
:100DB0003FEF4FE757E46D817E818F8198850E94D8
:100DC0007C0E18164CF520E030E040E251E46981D9
:100DD0007A818B819C810E94800EDC01CB01BC0159
:100DE000CD010E94030EDC01CB019A8789870FC0D9
:100DF00080E991E09C878B878B859C850197F1F733
:100E00009C878B8789859A8501979A8789878985A9
:100E10009A85009769F714C06D817E818F819885CE
:100E20000E94030EDC01CB019A87898789859A8508
:100E30009E878D878D859E850197F1F79E878D878B
:100E40002F960FB6F894DEBF0FBECDBFDF91CF91C6
:100E50000895CF93DF93CDB7DEB72F970FB6F894F1
:100E6000DEBF0FBECDBF8F8782E690E022E630E086
:100E7000F90120812260FC0120838F850E94800976
:100E800080E090E0A0E0B0E489839A83AB83BC83E8
:100E900020E030E04AE755E469817A818B819C81CA
:100EA0000E94800EDC01CB018D839E83AF83B887C7
:100EB00020E030E040E85FE36D817E818F8198859E
:100EC0000E94FF0D88232CF481E090E09A878987A7
:100ED0003FC020E03FEF4FE757E46D817E818F8177
:100EE00098850E947C0E18164CF520E030E040E218
:100EF00051E469817A818B819C810E94800EDC01A2
:100F0000CB01BC01CD010E94030EDC01CB019A870D
:100F100089870FC080E991E09C878B878B859C85B2
:100F20000197F1F79C878B8789859A8501979A8726
:100F3000898789859A85009769F714C06D817E81BC
:100F40008F8198850E94030EDC01CB019A878987E7
:100F500089859A859E878D878D859E850197F1F776
:100F60009E878D872F960FB6F894DEBF0FBECDBF3C
:100F7000DF91CF910895CF93DF93CDB7DEB72E9752
:100F80000FB6F894DEBF0FBECDBF82E290E022E242
:100F900030E0F9012081206FFC01208381E690E0A0
:100FA00021E630E0F90120812E60FC01208380E001
:100FB00090E0A0EAB1E489839A83AB83BC8320E00C
:100FC00030E04AE755E469817A818B819C810E94F7
:100FD000800EDC01CB018D839E83AF83B88720E038
:100FE00030E040E85FE36D817E818F8198850E94CB
:100FF000FF0D88232CF481E090E09A8789873FC019
:1010000020E03FEF4FE757E46D817E818F81988527
:101010000E947C0E18164CF520E030E040E251E4CE
:1010200069817A818B819C810E94800EDC01CB01D9
:10103000BC01CD010E94030EDC01CB019A87898798
:101040000FC080E991E09C878B878B859C850197F9
:10105000F1F79C878B8789859A8501979A8789877D
:1010600089859A85009769F714C06D817E818F818B
:1010700098850E94030EDC01CB019A8789878985B8
:101080009A859E878D878D859E850197F1F79E872E
:101090008D8782E00E94970688E20E9497068CE086
:1010A0000E94970686E00E94970681E00E949706BC
:1010B0002E960FB6F894DEBF0FBECDBFDF91CF9155
:1010C0000895CF93DF9300D0CDB7DEB79A8389839D
:1010D0000BC089819A819C012F5F3F4F3A832983FE
:1010E000FC0180810E94290789819A81FC0180810D
:1010F000882379F70F900F90DF91CF910895CF93C8
:10110000DF9300D000D0CDB7DEB789836A835C83DC
:101110004B838981882349F48A81803130F48A8124
:101120008F7080680E94970623C08981813049F4BE
:101130008A81803130F48A818F70806C0E9497069A
:1011400017C08981823049F48A81803130F48A81E4
:101150008F7080690E9497060BC08981833041F4AB
:101160008A81803128F48A818F70806D0E94970671
:101170008B819C810E9461080F900F900F900F90BF
:10118000DF91CF910895CF93DF9300D01F92CDB719
:10119000DEB789836A834B8340E050E06A818981AE
:1011A0000E947F088A81282F30E08B81882F90E071
:1011B000820F931F8031910554F403C080E20E9496
:1011C00029078B819FEF980F9B838823B9F78A812A
:1011D000815040E050E0682F89810E947F080F9085
:1011E0000F900F90DF91CF910895CF93DF93CDB7FC
:1011F000DEB72E970FB6F894DEBF0FBECDBF81E0ED
:101200000E94970680E090E0A0E0B0E489839A8392
:10121000AB83BC8320E030E04AE755E469817A8102
:101220008B819C810E94800EDC01CB018D839E838B
:10123000AF83B88720E030E040E85FE36D817E81D6
:101240008F8198850E94FF0D88232CF481E090E027
:101250009A8789873FC020E03FEF4FE757E46D81D1
:101260007E818F8198850E947C0E18164CF520E0B7
:1012700030E040E251E469817A818B819C810E9457
:10128000800EDC01CB01BC01CD010E94030EDC010C
:10129000CB019A8789870FC080E991E09C878B8773
:1012A0008B859C850197F1F79C878B8789859A852B
:1012B00001979A87898789859A85009769F714C06D
:1012C0006D817E818F8198850E94030EDC01CB01A8
:1012D0009A87898789859A859E878D878D859E8542
:1012E0000197F1F79E878D8780E80E9497062E96DA
:1012F0000FB6F894DEBF0FBECDBFDF91CF9108953A
:10130000CF93DF931F92CDB7DEB7898383E290E05E
:1013100023E230E0F9012081322F3F702981207FC4
:10132000232BFC01208382E690E022E630E0F901E5
:1013300020812860FC0120830000000082E690E00C
:1013400022E630E0F9012081277FFC01208383E23F
:1013500090E023E230E0F9012081422F4F70298193
:10136000222F30E022953295307F3227207F32279E
:10137000242BFC01208382E690E022E630E0F90194
:1013800020812860FC0120830000000082E690E0BC
:1013900022E630E0F9012081277FFC0120830F90B5
:1013A000DF91CF910895CF93DF9300D01F92CDB7F7
:1013B000DEB789837B836A838981882F90E00896D2
:1013C000880F880F880F0E9497068A819B819C0155
:1013D0002F5F3F4F3B832A83FC0180810E942907B6
:1013E0008A819B819C012F5F3F4F3B832A83FC01B5
:1013F00080810E9429078A819B819C012F5F3F4F3A
:101400003B832A83FC0180810E9429078A819B817A
:101410009C012F5F3F4F3B832A83FC0180810E9408
:1014200029078A819B819C012F5F3F4F3B832A8341
:10143000FC0180810E9429078A819B819C012F5F8A
:101440003F4F3B832A83FC0180810E9429078A81C8
:101450009B819C012F5F3F4F3B832A83FC0180814E
:101460000E9429078A819B819C012F5F3F4F3B830C
:101470002A83FC0180810E94290780E80E94970648
:101480000F900F900F90DF91CF910895CF93DF933E
:10149000CDB7DEB78AE390E02FEFFC01208381E532
:1014A00090E028E2FC01208383E590E02FE0FC013E
:1014B000208387E590E022E0FC0120837894DF918F
:1014C000CF910895CF93DF9300D0CDB7DEB7898356
:1014D0006A838981882F90E080509F4F2A81FC0188
:1014E00020830F900F90DF91CF910895CF93DF93DA
:1014F00000D0CDB7DEB789836A838BE390E02A8181
:10150000422F4F702981222F30E022953295307F73
:101510003227207F3227242B2068FC0120830F9064
:101520000F90DF91CF910895CF93DF9300D0CDB787
:10153000DEB79A83898349815A819A01ADECBCEC6C
:101540000E94F00D96958795969587959695879527
:10155000880F991F9C01220F331F220F331F820F08
:10156000931F9A01281B390BC901809300018981BF
:101570009A819C01ADECBCEC0E94F00DAC0156953B
:10158000479556954795569547959A01ADECBCEC15
:101590000E94F00D969587959695879596958795D7
:1015A000880F991F9C01220F331F220F331F820FB8
:1015B000931F9A01281B390BC9018093010189816E
:1015C0009A8196958795969587959C01ABE7B4E1AE
:1015D0000E94F00DAC01569547959A01ADECBCEC1C
:1015E0000E94F00D96958795969587959695879587
:1015F000880F991F9C01220F331F220F331F820F68
:10160000931F9A01281B390BC9018093020189811C
:101610009A819695879596958795969587959C013D
:10162000A5ECB0E20E94F00DAC01529542954F70CE
:1016300045275F7045279A01ADECBCEC0E94F00D88
:10164000969587959695879596958795880F991F76
:101650009C01220F331F220F331F820F931F9A0109
:10166000281B390BC901809303010F900F90DF9164
:10167000CF910895CF93DF9300D01F92CDB7DEB7FF
:1016800089837B836A838A819B81009769F1998131
:101690008DEC989F812D1124869586958695880FCF
:1016A000282F220F220F820F292F281B822F809391
:1016B000000199818DEC989F812D1124982F96958A
:1016C000969596958DEC989F812D112486958695FB
:1016D0008695880F282F220F220F820F292F281B73
:1016E000822F809301012CC099818DEC989F812DD0
:1016F0001124869586958695880F282F220F220F14
:10170000820F292F281B822F8093020199818DEC53
:10171000989F812D1124982F9695969596958DECEE
:10172000989F812D1124869586958695880F282F60
:10173000220F220F820F292F281B822F8093030153
:101740000F900F900F90DF91CF910895CF93DF937B
:1017500000D0CDB7DEB79A83898389819A818130A1
:10176000910551F08130910520F08230910541F0D2
:101770000DC0109228010AC081E08093280106C0A4
:101780008091280180958093280100000F900F9090
:10179000DF91CF9108951F920F9200905F000F92FA
:1017A000112400905B000F922F933F934F935F9310
:1017B0006F937F938F939F93AF93BF93EF93FF9319
:1017C000CF93DF93CDB7DEB780912901843081F4C8
:1017D00080912801882329F060E084E00E94760A45
:1017E00004C060E085E00E94760A1092290112C0D0
:1017F00080912901882F90E080509F4FFC019081BB
:1018000080912901692F0E94760A809129018F5FBA
:1018100080932901DF91CF91FF91EF91BF91AF911B
:101820009F918F917F916F915F914F913F912F91F8
:101830000F9000925B000F9000925F000F901F903E
:101840001895CF93DF9300D000D01F92CDB7DEB7AD
:101850009A8389836B835D834C838C819D812981ED
:101860003A81FC01318320838C819D8129813A81D9
:10187000FC01338322838C819D8129813A81FC0183
:10188000358324838C819D812B81FC0126830F90DD
:101890000F900F900F900F90DF91CF910895CF93FD
:1018A000DF9300D000D000D0CDB7DEB79B838A8312
:1018B0006C835E834D8319824BC08D819E81FC01B8
:1018C000808191819C018D819E81FC018481958123
:1018D000281B390B8D819E81FC018681882F90E029
:1018E0002817390754F08D819E81FC0124813581B0
:1018F0008D819E81FC01318320838D819E81FC013D
:10190000208131818D819E81FC01828193810197AB
:101910002817390711F4898120C08D819E81FC012F
:1019200080819181AC014F5F5F4F2D813E81F90134
:10193000518340832A813B81A9014F5F5F4F5B83C5
:101940004A83F9012081FC01208389818F5F89838B
:1019500099818C81981708F4B0CF26960FB6F89429
:10196000DEBF0FBECDBFDF91CF910895CF93DF9340
:1019700000D000D000D0CDB7DEB79B838A836C83C4
:101980005E834D8319824DC08D819E81FC018281D1
:1019900093819C018D819E81FC0184819581281B0E
:1019A000390B8D819E81FC018681882F90E028175C
:1019B000390754F08D819E81FC01248135818D8110
:1019C0009E81FC01338322838D819E81FC01808175
:1019D00091819C01215031098D819E81FC01828180
:1019E00093812817390711F4898120C08A819B814E
:1019F0009C012F5F3F4F3B832A832D813E81F9015C
:101A000022813381B9016F5F7F4F4D815E81FA0181
:101A100073836283F9012081FC01208389818F5FB8
:101A2000898399818C81981708F4AECF26960FB6DA
:101A3000F894DEBF0FBECDBFDF91CF910895CF9355
:101A4000DF93CDB7DEB7A7970FB6F894DEBF0FBE12
:101A5000CDBFCE0108969E012F5F3F4FA90160E1E7
:101A60000E94210CCE010196AC016CE080E191E076
:101A70000E944F0CCE0148969E012F5F3F4FA90157
:101A80006CE00E94B60CCE010196AC016CE080E1E6
:101A900091E00E944F0CCE010196AC0162E08DE115
:101AA00091E00E944F0CCE0148969E012F5F3F4F60
:101AB000A9016EE00E94B60C87E390E020EFFC01E4
:101AC000208384E390E020E8FC01208382E290E020
:101AD00024E0FC01208383E390E00E94C10283E3C1
:101AE00090E00E94E4028FE191E00E945F0382E8AF
:101AF0009DE00E949B030E949C0D8FE89DE00E9448
:101B0000B703FFCFCF93DF931F92CDB7DEB78983A3
:101B100089810E9407030F90DF91CF910895CF93A1
:101B2000DF931F92CDB7DEB7898389810E940703B7
:101B30000F90DF91CF910895CF93DF93CDB7DEB7AC
:101B400085E390E025E330E0F90120812F77FC0167
:101B5000208383E290E023E230E0F90120812B7FB3
:101B6000FC012083DF91CF910895CF93DF93CDB710
:101B7000DEB785E390E025E330E0F90120812068BD
:101B8000FC01208383E290E023E230E0F901208130
:101B90002460FC012083DF91CF910895A1E21A2EE9
:101BA000AA1BBB1BFD010DC0AA1FBB1FEE1FFF1F01
:101BB000A217B307E407F50720F0A21BB30BE40B51
:101BC000F50B661F771F881F991F1A9469F7609598
:101BD0007095809590959B01AC01BD01CF01089552
:101BE000A29FB001B39FC001A39F700D811D11245E
:101BF000911DB29F700D811D1124911D08952FD04C
:101C000008F481E0089557D088F09F5790F0B92FDD
:101C10009927B751A0F0D1F0660F771F881F991F41
:101C20001AF0BA95C9F712C0B13081F05ED0B1E0B8
:101C300008955BC0672F782F8827B85F39F0B93FC8
:101C4000CCF3869577956795B395D9F73EF4909543
:101C50008095709561957F4F8F4F9F4F0895990F95
:101C60000008550FAA0BE0E8FEEF16161706E80766
:101C7000F907C0F012161306E407F50798F0621B87
:101C8000730B840B950B39F40A2661F0232B242B5C
:101C9000252B21F408950A2609F4A140A6958FEF7B
:101CA000811D811D089557FD9058440F551F59F00F
:101CB0005F3F71F04795880F97FB991F61F09F3F39
:101CC00079F087950895121613061406551FF2CF62
:101CD0004695F1DF08C0161617061806991FF1CFB2
:101CE00086957105610508940895E894BB276627D9
:101CF0007727CB0197F90895B2DF08F48FEF0895A5
:101D00000BD078C069D028F06ED018F0952309F078
:101D10005AC05FC01124EACFC6DFA0F3959FD1F36C
:101D2000950F50E0551F629FF001729FBB27F00D89
:101D3000B11D639FAA27F00DB11DAA1F649F6627DE
:101D4000B00DA11D661F829F2227B00DA11D621F2D
:101D5000739FB00DA11D621F839FA00D611D221FE7
:101D6000749F3327A00D611D231F849F600D211DCB
:101D7000822F762F6A2F11249F5750408AF0E1F06E
:101D800088234AF0EE0FFF1FBB1F661F771F881FB7
:101D900091505040A9F79E3F510570F014C0A6CF56
:101DA0005F3FECF3983EDCF3869577956795B795A2
:101DB000F795E7959F5FC1F7FE2B880F911D9695CC
:101DC000879597F9089597F99F6780E870E060E03C
:101DD00008959FEF80EC089500240A9416161706C4
:101DE00018060906089500240A941216130614060C
:101DF00005060895092E0394000C11F4882352F06F
:101E0000BB0F40F4BF2B11F460FF04C06F5F7F4F26
:0A1E10008F4F9F4F0895F894FFCF05
:101E1A000A0A0A0A450E0D0B1615132625234643F0
:101E2A006669666F74657374746578740066000A0F
:081E3A000D4865790A0D000056
:00000001FF
