:100000000C9446000C9465000C9465000C946500FB
:100010000C9465000C9465000C9465000C946500CC
:100020000C9465000C9465000C9465000C946500BC
:100030000C9465000C9465000C9465000C94F90612
:100040000C9465000C9465000C9413020C946500EC
:100050000C9465000C9465000C9465000C9465008C
:100060000C9465000C9465000C9465000C9465007C
:100070000C9465000C9465000C943F020C94650090
:100080000C9465000C9465000C94650011241FBE4F
:10009000CFEFD0E1DEBFCDBF11E0A0E0B1E0ECE2F8
:1000A000F0E100E00BBF02C007900D92A831B1074C
:1000B000D9F721E0A8E1B1E001C01D92AE31B2074D
:1000C000E1F70E94A3070C9414080C940000FC01B3
:1000D000862F643680F064E60E94B80720E3280F7C
:1000E0002083892F6AE00E94B807805D8183905D3C
:1000F0009283138208956A3048F06AE00E94B8073C
:10010000805D8083905D918312820895805D8083FD
:10011000118208952F923F924F925F926F927F9239
:100120008F929F92AF92BF92CF92DF92EF92FF9207
:100130000F931F93CF93DF93EC016A017B014F3F35
:1001400051056105710509F008F45BC092E0392E94
:1001500024E6822E912CA12CB12CC701B601A50159
:1001600094010E94D807232B242B252B51F0339484
:10017000AAE0B0E0A50194010E94FA074B015C01DE
:10018000ECCF232CC501B4012AE030E040E050E080
:100190000E94D80749015A018E018AE0482E512C4D
:1001A000612C712C2A94FFEF2F16A9F0C701B6011C
:1001B000A50194010E94D807205DF80121938F01C9
:1001C0006B017C01C501B401A30192010E94D80713
:1001D00049015A01E7CFC30DD11D1882DF91CF919C
:1001E0001F910F91FF90EF90DF90CF90BF90AF9055
:1001F0009F908F907F906F905F904F903F902F9047
:100200000895642FCE01DF91CF911F910F91FF9040
:10021000EF90DF90CF90BF90AF909F908F907F90A6
:100220006F905F904F903F902F900C94670077FFF6
:100230000EC0FC018DE2819344275527461B570BC6
:100240005F77052E000C660B770BCF0104C0AB0166
:10025000770F660B770B0C948A00282FFC018E2FEA
:10026000821B91919111FBCF08950F931F93CF9310
:10027000DF93D82FC92F0E942D012FEF280F61E0A7
:1002800070E08AE0215038F0AB01849FB001859F77
:10029000700D1124F7CFED2FFC2FC0E0D0E00AE065
:1002A00010E02191022E000C330B20533109269FC0
:1002B000C001279F900D369F900D1124C80FD91FA4
:1002C000CB01B8010E94C4076115710551F7CE0139
:1002D000DF91CF911F910F91089521E030E090E0E0
:1002E000615048F0A901489F9001499F300D589FE7
:1002F000300D1124F5CFC901089589B9909390006C
:1003000088E18AB986E080939500089580939900EA
:100310009093980088E180939A0086E080939D00F6
:1003200008958CB95D9BFECF089580939C008091C9
:100330009B0085FFFCCF089590919B0095FFFCCF1B
:1003400080939C0080919B0086FFFCCF80919B0056
:10035000806480939B0008955F9BFECF8CB10895CD
:1003600080919B0087FFFCCF80919C000895CF93E4
:10037000DF93EC018991882319F00E949101FACF53
:10038000DF91CF910895CF93DF9300D000D0CDB708
:10039000DEB7682FCE0101960E946700CE0101965C
:1003A0000E94B7010F900F900F900F90DF91CF91A7
:1003B0000895CF93DF9300D000D000D0CDB7DEB743
:1003C000AC0160E070E0CE0101960E948A00CE018F
:1003D00001960E94B70126960FB6F894DEBF0FBEB5
:1003E000CDBFDF91CF910895CF93DF93EC01899139
:1003F000882319F00E949501FACFDF91CF910895DB
:10040000579A789490931D0180931C0108959C0144
:10041000EAE9F0E0908190689083789430931B0132
:1004200020931A0108951F920F920FB60F92112474
:100430000BB60F922F933F934F935F936F937F93DE
:100440008F939F93AF93BF93EF93FF938CB1E09102
:100450001C01F0911D010995FF91EF91BF91AF91A2
:100460009F918F917F916F915F914F913F912F91CC
:100470000F900BBE0F900FBE0F901F9018951F92FC
:100480000F920FB60F9211240BB60F922F933F933A
:100490004F935F936F937F938F939F93AF93BF938C
:1004A000EF93FF9380919C00E0911A01F0911B0162
:1004B0000995FF91EF91BF91AF919F918F917F919E
:1004C0006F915F914F913F912F910F900BBE0F90C5
:1004D0000FBE0F901F9018951092710088E98093BD
:1004E0007000089594EA909374009091740097FFBF
:1004F000FCCF90917100987F983021F0903111F0ED
:1005000081E008958093730084E880937400809163
:10051000740087FFFCCF80917100887F883111F0D3
:10052000803471F780E0089524EA34E844E92093A8
:1005300074009091740097FFFCCF90917100987FA8
:10054000983011F0903199F78093730030937400D4
:100550009091740097FFFCCF90917100987F90323A
:1005600011F0983539F4409374009091740094FD23
:10057000FCCFDDCF08950C94720284E9809374005F
:100580008091740084FDFCCF08958093730084E80B
:10059000809374008091740087FFFCCF909171006C
:1005A000987F81E0983209F480E0089584EC80938C
:1005B00074008091740087FFFCCF809173000895D0
:1005C00084E8809374008091740087FFFCCF809151
:1005D0007300089583E886B980E487B9089597B1D8
:1005E00027B1907E892B822B87B9369A369BFECF16
:1005F00084B125B190E0922B089588E784BB0895DB
:1006000093E041E050E021E0290FBA0102C0660FFB
:10061000771F9A95E2F765BB8FE19EE40197F1F7AA
:1006200000C0000083B3273010F093E001C0922F88
:10063000282F2770273039F38F7793B3977097302F
:10064000E1F79FEF20E732E0915020403040E1F7A2
:1006500000C000000895DF92EF92FF920F931F9366
:10066000CF93DF93CDB7DEB72C970FB6F894DEBFEC
:100670000FBECDBF7C018CE0E4E0F1E0DE0111961D
:1006800001900D928A95E1F7162F03E28AE2D82EA7
:10069000112321F10E9400032CE09FEF920F9F3F56
:1006A000D9F0E1E0F0E0EC0FFD1FE90FF11D308122
:1006B000831310C09A3019F4F701D08208C09B3020
:1006C00019F4F701008303C0215DF7012083FFEFD8
:1006D000EF1AFF0A292FE1CF1150DACF2C960FB66F
:1006E000F894DEBF0FBECDBFDF91CF911F910F9168
:1006F000FF90EF90DF900895CF93DF93CDB7DEB7F3
:100700002C970FB6F894DEBF0FBECDBF8CE0E4E0AF
:10071000F1E0DE01119601900D928A95E1F70E94B9
:100720000003382F80E09CE02FEF290F9923A9F0D8
:10073000E1E0F0E0EC0FFD1FE20FF11D408134130A
:100740000AC02A3029F02B3029F08FE2890F03C02C
:100750008AE201C083E2922FE7CF2C960FB6F8947D
:10076000DEBF0FBECDBFDF91CF910895EF92FF9214
:100770000F931F93CF93DF9300D000D000D0CDB75D
:10078000DEB77C0110E00E947C0390ED980F9A3058
:1007900078F401E0010FE1E0F0E0EC0FFD1FE10F64
:1007A000F11D8083E114F10449F1F701099526C098
:1007B000833211F0163038F341E050E080E090E0F1
:1007C0006AE01150E1E0F0E0EC0FFD1FE10FF11DD8
:1007D000208130E020533109429FF001439FF00D0A
:1007E000529FF00D11248E0F9F1F9A01629FA0014E
:1007F000639F500D11241111E4CF02C0102FDACFE6
:1008000026960FB6F894DEBF0FBECDBFDF91CF9115
:100810001F910F91FF90EF9008950E946C0282EA61
:100820000E94720280E00E94C50280E00E94C50220
:1008300080E00E94C5020C94BD021F93CF93DF930A
:10084000EC0188818C3308F08EC089818C3308F0EC
:100850008AC08A81883108F086C08B81813208F095
:1008600082C08C81873008F07EC08D818D3008F089
:100870007AC08E819F818C569740883C910508F004
:1008800072C082EA0E94720282E00E94C5028881E0
:100890001AE0612F0E94B80720E1829F900D112479
:1008A000892F8F770E94C5028981612F0E94B80726
:1008B00020E1829F900D1124892F8F770E94C5021D
:1008C0008A81612F0E94B80720E1829F900D112438
:1008D000892F8F730E94C5028B81612F0E94B807F8
:1008E00020E1829F900D1124892F8F730E94C502F1
:1008F0008C81612F0E94B807892F87700E94C502E2
:100900002E813F818D81612F203D374080F00E94F4
:10091000B80720E1829F900D1124892F8F71806884
:100920000E94C5028E819F81805D97400EC00E940B
:10093000B80720E1829F900D1124892F8F710E94AA
:10094000C5028E819F818C5697406AE070E00E94BC
:10095000C40790E1699F800D11240E94C5020E9486
:10096000BD0280E001C081E0DF91CF911F91089529
:10097000BF92CF92DF92EF92FF920F931F93CF938C
:10098000DF93EC0182EA0E94720282E00E94C502BB
:1009900083EA0E94BB020E94D602D82E0E94D60291
:1009A000F82E0E94D602082F0E94D602182F0E940D
:1009B000D602B82E0E94D602C82E0E94E002E82E6F
:1009C0000E94BD029D2D9695969596959E70892FB5
:1009D000880F880F980F8D2D8F70980F98839F2DFB
:1009E0009695969596959E70892F880F880F890FFA
:1009F0009F2D9F70F82EF90EF982902F969596955F
:100A000096959670892F880F880F980F0F70090F91
:100A10000A83912F9695969596959670892F880FB3
:100A2000880F980F1F70190F1B838B2D87708C8375
:100A3000C4FA992790F9990F892F880F880F980F7A
:100A40008C2D8F70980F9D832E2D22952F708AE00C
:100A5000289F900111242459384F9E2D9F70290FF3
:100A6000311DC7FE02C02C593F4F3F832E838D2D71
:100A7000881F8827881FDF91CF911F910F91FF90CA
:100A8000EF90DF90CF90BF90089593B1282F207FF3
:100A90009F70922B93B9E2E6F0E09081986090838A
:100AA000000000009081977F908323B130E1839F05
:100AB000C0011124922F9F70892B83B98081886097
:100AC0008083000000008081877F80830895E2E6B4
:100AD000F0E090819D7F90830E9445058FE39FE128
:100AE0000197F1F700C00000089582B1806F82B9CC
:100AF000E1E6F0E080818E6080832FEF89EF90E067
:100B0000215080409040E1F700C0000082E00E9448
:100B1000670588E20E9467058CE00E94670586E011
:100B20000E94670581E00C94670581E00E946705DB
:100B30008FE39FE10197F1F700C0000080E80C947B
:100B40006705E2E6F0E09081926090830E9445059F
:100B50008FE39FE10197F1F700C000000895CF9364
:100B6000DF93EC018991882319F00E94A105FACF47
:100B7000DF91CF910895CF93DF93EA01811105C0F2
:100B80006031C8F4862F806814C0813029F4603148
:100B900090F4862F806C0DC0823029F4603158F4B7
:100BA000862F806906C0833031F4603120F4862FAF
:100BB000806D0E946705CE01DF91CF910C94AF0547
:100BC0001F93CF93DF93182FD62FC42F40E050E010
:100BD0000E94BB052C2F30E02D0F311D2031310537
:100BE00054F06FEF6D0F40E050E0812FDF91CF9117
:100BF0001F910C94BB05CC23A1F380E20E94A105B8
:100C0000C150F9CFCF93DF93EB01880F880F880F86
:100C1000805C0E94670588810E94A10589810E94ED
:100C2000A1058A810E94A1058B810E94A1058C816A
:100C30000E94A1058D810E94A1058E810E94A105BF
:100C40008F810E94A10580E8DF91CF910C94670508
:100C5000CF92DF92EF92FF9280E00E94EF0280E05D
:100C60000E94EF0280E00E94EF026C0180E00E948F
:100C7000EF02E12CF12CC80ED91EE11CF11C80E022
:100C80000E94EF02A7019601280F391F411D511D37
:100C9000CA01B90123E030E040E050E00E94D807EB
:100CA000A8EEB1E00E94FA0724E630E040E050E010
:100CB0000E94D807623371058105910518F0C901BA
:100CC000019601C0C9016AE070E00E94C407873044
:100CD000910520F06F5F7F4F2AE00AC02AE003975A
:100CE00038F0269FC001279F900D1124059605C05E
:100CF000269FC001279F900D1124FF90EF90DF9059
:100D0000CF9008950C940702C198C39808950E944B
:100D10008601B99ABB9A0C948406C19AC39A089525
:100D20008FEF8ABB88E281BF8FE083BF82E087BFFD
:100D300078940895E82FF0E0E050FF4F6083089525
:100D40006F7020E1829FC0011124862B80688BBBCD
:100D50000895CF93DF93EC01E0E0F1E02AE030E08A
:100D6000B9010E94C4078083CB01B9010E94C40766
:100D70008183CE0164E670E00E94C407CB01B90113
:100D80000E94C4078283CE0168EE73E00E94C4070C
:100D9000CB01B9010E94C4078383DF91CF910895ED
:100DA0002AE0672B51F0622F0E94B8079093000150
:100DB0000E94B807909301010895622F0E94B8071E
:100DC000909302010E94B807909303010895813027
:100DD000910539F018F0029731F008951092190139
:100DE000089581E003C080911901809580931901D5
:100DF00008951F920F920FB60F9211240BB60F9207
:100E00002F933F934F935F936F937F938F939F9312
:100E1000AF93BF93EF93FF9380911801843059F4FF
:100E200080911901882311F080EC01C080ED8BBB0B
:100E3000109218010CC0E82FF0E0E050FF4F6081E5
:100E40000E94A006809118018F5F80931801FF9186
:100E5000EF91BF91AF919F918F917F916F915F9132
:100E60004F913F912F910F900BBE0F900FBE0F909F
:100E70001F9018950C949101CF93C82F0E94910157
:100E80000E948D068C2F0E949C01CF910C948406A9
:100E9000FA0191838083938382839583848366831D
:100EA0000895CF93DF93FA01782FDC018A2F871BF7
:100EB0008617E8F4C481D581408151814C1B5D0BBC
:100EC000268130E04217530714F0D183C083C081DC
:100ED000D1812281338121503109C217D30739F0E2
:100EE000CE010196918380838D918883DFCFDF913E
:100EF000CF910895CF93DF93FA01782FDC018A2FE9
:100F0000871B8617E8F4C481D581428153814C1B2D
:100F10005D0B268130E04217530714F0D383C28360
:100F2000C281D3812081318121503109C217D30779
:100F300039F0CE0101969383828388818D93DFCF30
:100F4000DF91CF91089587E690E00E947D018CE3C8
:100F500097E00E94000280E191E00E94B70187E6DD
:100F600090E00E9487068AE397E00E948206FFCF06
:100F7000991B79E004C0991F961708F0961B881FEB
:100F80007A95C9F780950895AA1BBB1B51E107C04C
:100F9000AA1FBB1FA617B70710F0A61BB70B881F09
:100FA000991F5A95A9F780959095BC01CD01089598
:100FB000A1E21A2EAA1BBB1BFD010DC0AA1FBB1F5D
:100FC000EE1FFF1FA217B307E407F50720F0A21BCF
:100FD000B30BE40BF50B661F771F881F991F1A943C
:100FE00069F760957095809590959B01AC01BD0166
:100FF000CF0108950E940508A59F900DB49F900D04
:10100000A49F800D911D11240895A29FB001B39F4C
:10101000C001A39F700D811D1124911DB29F700D01
:0C102000811D1124911D0895F894FFCF4C
:10102C000A0A0A0A450E0D0B1615132625234643EC
:08103C000A0D4865790A0D0058
:00000001FF
