:100000000C9446000C9465000C9465000C946500FB
:100010000C9465000C9465000C9465000C946500CC
:100020000C9465000C9465000C9465000C946500BC
:100030000C9465000C9465000C9465000C944C03C2
:100040000C9465000C9465000C9465000C9465009C
:100050000C9465000C9465000C9465000C9465008C
:100060000C9465000C9465000C9465000C9465007C
:100070000C9465000C9465000C9465000C9465006C
:100080000C9465000C9465000C94650011241FBE4F
:10009000CFEFD0E1DEBFCDBF11E0A0E0B1E0E8E2FC
:1000A000F9E000E00BBF02C007900D92A234B10747
:1000B000D9F721E0A2E4B1E001C01D92A434B20757
:1000C000E1F70E948D030C9492040C940000FC0153
:1000D000862F643680F064E60E94360420E3280F01
:1000E0002083892F6AE00E943604805D8183905DC1
:1000F0009283138208956A3048F06AE00E943604C1
:10010000805D8083905D918312820895805D8083FD
:10011000118208952F923F924F925F926F927F9239
:100120008F929F92AF92BF92CF92DF92EF92FF9207
:100130000F931F93CF93DF93EC016A017B014F3F35
:1001400051056105710509F008F45BC092E0392E94
:1001500024E6822E912CA12CB12CC701B601A50159
:1001600094010E945604232B242B252B51F0339409
:10017000AAE0B0E0A50194010E9478044B015C0163
:10018000ECCF232CC501B4012AE030E040E050E080
:100190000E94560449015A018E018AE0482E512CD2
:1001A000612C712C2A94FFEF2F16A9F0C701B6011C
:1001B000A50194010E945604205DF80121938F014E
:1001C0006B017C01C501B401A30192010E94560498
:1001D00049015A01E7CFC30DD11D1882DF91CF919C
:1001E0001F910F91FF90EF90DF90CF90BF90AF9055
:1001F0009F908F907F906F905F904F903F902F9047
:100200000895642FCE01DF91CF911F910F91FF9040
:10021000EF90DF90CF90BF90AF909F908F907F90A6
:100220006F905F904F903F902F900C94670088E7FD
:1002300084BB089593E041E050E021E0290FBA012A
:1002400002C0660F771F9A95E2F765BB8FE19EE4C7
:100250000197F1F700C0000083B3273010F093E05E
:1002600001C0922F282F2770273039F38F7793B34F
:1002700097709730E1F79FEF20E732E091502040F0
:100280003040E1F700C000000895DF92EF92FF9246
:100290000F931F93CF93DF93CDB7DEB72C970FB695
:1002A000F894DEBF0FBECDBF7C018CE0E4E0F1E04E
:1002B000DE01119601900D928A95E1F7162F03E267
:1002C0008AE2D82E112321F10E941A012CE09FEF1F
:1002D000920F9F3FD9F0E1E0F0E0EC0FFD1FE90F36
:1002E000F11D3081831310C09A3019F4F701D082C8
:1002F00008C09B3019F4F701008303C0215DF701AA
:100300002083FFEFEF1AFF0A292FE1CF1150DACF38
:100310002C960FB6F894DEBF0FBECDBFDF91CF9104
:100320001F910F91FF90EF90DF9008951F93CF934F
:10033000DF93CDB7DEB72C970FB6F894DEBF0FBEB4
:10034000CDBF8CE0E4E0F1E0DE01119601900D926A
:100350008A95E1F70E941A019CE02FEF290F99235B
:10036000A9F0E1E0F0E0EC0FFD1FE20FF11D30819C
:1003700083130AC02A3029F02B3029F01FE2190F0D
:1003800003C01AE201C013E2922FE7CF812F2C960F
:100390000FB6F894DEBF0FBECDBFDF91CF911F9196
:1003A0000895EF92FF920F931F93CF93DF9300D0A6
:1003B00000D000D0CDB7DEB77C0110E00E949601DE
:1003C00090ED980F9A3078F401E0010FE1E0F0E051
:1003D000EC0FFD1FE10FF11D8083E114F10449F1E1
:1003E000F701099526C0833211F0163038F341E049
:1003F00050E080E090E06AE01150E1E0F0E0EC0FC6
:10040000FD1FE10FF11D208130E020533109429F93
:10041000F001439FF00D529FF00D11248E0F9F1F8E
:100420009A01629FA001639F500D11241111E4CF26
:1004300002C0102FDACF26960FB6F894DEBF0FBE9B
:10044000CDBFDF91CF911F910F91FF90EF90089555
:1004500093B1282F207F9F70922B93B9E2E6F0E0B2
:10046000908198609083000000009081977F908336
:1004700023B130E1839FC0011124922F9F70892BFB
:1004800083B9808188608083000000008081877F3D
:1004900080830895E2E6F0E090819D7F90830E9442
:1004A00028028FE39FE10197F1F700C00000089553
:1004B00082B1806F82B9E1E6F0E080818E60808356
:1004C0002FEF89EF90E0215080409040E1F700C08D
:1004D000000082E00E944A0288E20E944A028CE008
:1004E0000E944A0286E00E944A0281E00C944A027D
:1004F00081E00E944A028FE39FE10197F1F700C07B
:10050000000080E80C944A02E2E6F0E090819260FC
:1005100090830E9428028FE39FE10197F1F700C0CA
:1005200000000895CF93DF93EC018991882319F09F
:100530000E948402FACFDF91CF910895CF93DF9389
:10054000EA01811105C06031C8F4862F806814C0AB
:10055000813029F4603190F4862F806C0DC0823098
:1005600029F4603158F4862F806906C0833031F455
:10057000603120F4862F806D0E944A02CE01DF9107
:10058000CF910C949202CF93DF93EB01880F880FE9
:10059000880F805C0E944A0288810E9484028981BF
:1005A0000E9484028A810E9484028B810E948402BC
:1005B0008C810E9484028D810E9484028E810E941F
:1005C00084028F810E94840280E8DF91CF910C9495
:1005D0004A028FEF8ABB88E281BF8FE083BF82E04F
:1005E00087BF789408956F7020E1829FC001112425
:1005F000862B80688BBB0895CF93DF93EC01E0E0FE
:10060000F1E02AE030E0B9010E9442048083CB018E
:10061000B9010E9442048183CE0164E670E00E9429
:100620004204CB01B9010E9442048283CE0168EEEC
:1006300073E00E944204CB01B9010E94420483830B
:10064000DF91CF9108952AE0672B51F0622F0E942D
:100650003604909300010E9436049093010108959E
:10066000622F0E943604909302010E9436049093F8
:10067000030108958130910539F018F0029731F0A7
:10068000089510924301089581E003C080914301D1
:1006900080958093430108951F920F920FB60F9299
:1006A00011240BB60F922F933F934F935F936F9349
:1006B0007F938F939F93AF93BF93EF93FF9380911B
:1006C0004201843059F480914301882311F080EC79
:1006D00001C080ED8BBB109242010CC0E82FF0E00E
:1006E000E050FF4F60810E94F302809142018F5FD2
:1006F00080934201FF91EF91BF91AF919F918F91B4
:100700007F916F915F914F913F912F910F900BBE11
:100710000F900FBE0F901F901895CF93DF93CDB71A
:10072000DEB7A7970FB6F894DEBF0FBECDBF88E047
:10073000E2E1F1E0DE01599601900D928A95E1F730
:1007400088E0EAE1F1E0DE01519601900D928A9590
:10075000E1F788E0E2E2F1E0DE01199601900D9206
:100760008A95E1F788E0EAE2F1E0DE011196019076
:100770000D928A95E1F70E9417010E945802BE016E
:10078000675E7F4F80E00E94C302BE016F5E7F4FB5
:1007900081E00E94C302BE01675F7F4F82E00E943A
:1007A000C302BE016F5F7F4F83E00E94C30240E13E
:1007B00051E064E080E00E949E0284E40E94840292
:1007C00082E00E9484028EE40E94840283E00E9400
:1007D00084028AE50E94840242E351E061E081E004
:1007E0000E949E02139A80918B00816880938B00F7
:1007F00081E180938A0084E690E090938700809363
:10080000860040E452EE61E070E0CE0181960E94E5
:100810008A0040E451E060E083E00E949E0211E122
:10082000115021F080E00E948402FACF2FEF8FE078
:1008300097E2215080409040E1F700C0000040E482
:1008400051E060E083E00E949E0211E1115021F02E
:1008500081E00E948402FACF2FEF8FE097E22150CF
:1008600080409040E1F700C00000D3CF991B79E0B1
:1008700004C0991F961708F0961B881F7A95C9F730
:1008800080950895AA1BBB1B51E107C0AA1FBB1F7F
:10089000A617B70710F0A61BB70B881F991F5A950C
:1008A000A9F780959095BC01CD010895A1E21A2E7B
:1008B000AA1BBB1BFD010DC0AA1FBB1FEE1FFF1F04
:1008C000A217B307E407F50720F0A21BB30BE40B54
:1008D000F50B661F771F881F991F1A9469F760959B
:1008E0007095809590959B01AC01BD01CF01089555
:1008F0000E948304A59F900DB49F900DA49F800D2E
:10090000911D11240895A29FB001B39FC001A39F20
:10091000700D811D1124911DB29F700D811D112438
:08092000911D0895F894FFCF2A
:100928000A0A0A0A450E0D0B1615132625234643F7
:10093800000014000A0A0A1F1F1F05000A0A0A1FDE
:100948001F1F0A000E111111110E020400040404E5
:10095800040E484150505920424952544844415984
:0209680000008D
:00000001FF
