:100000000C9446000C9463000C9463000C94630001
:100010000C9463000C9463000C9463000C946300D4
:100020000C9463000C9463000C9463000C946300C4
:100030000C9463000C9463000C9463000C9474049F
:100040000C9463000C9463000C94CA010C9463003C
:100050000C9463000C9463000C9463000C94630094
:100060000C9463000C9463000C9463000C94630084
:100070000C9463000C9463000C94F2010C946300E4
:100080000C9463000C9463000C94630011241FBE55
:10009000CFEFD0E1DEBFCDBF11E0A0E0B1E0E0ECFA
:1000A000FAE002C005900D92AC31B107D9F721E01A
:1000B000ACE1B1E001C01D92A536B207E1F70E94A4
:1000C000E5040C945E050C940000FC01862F643658
:1000D00078F064E60E940205805D8083892F6AE0E3
:1000E0000E940205805D8183905D92831382089552
:1000F0006A3048F06AE00E940205805D8083905D6E
:10010000918312820895805D8083118208952F92D9
:100110003F924F925F926F927F928F929F92AF9297
:10012000BF92CF92DF92EF92FF920F931F93CF93E4
:10013000DF93EC016A017B014F3F510561057105B9
:1001400009F008F45BC092E0392E24E6822E912C4F
:10015000A12CB12CC701B601A50194010E94220572
:10016000232B242B252B51F03394AAE0B0E0A501DA
:1001700094010E9444054B015C01ECCF232CC50186
:10018000B4012AE030E040E050E00E94220549013D
:100190005A018E018AE0482E512C612C712C3A9420
:1001A000FFEF3F16A9F0C701B601A50194010E9417
:1001B0002205205DF80121938F016B017C01C501AF
:1001C000B401A30192010E94220549015A01E7CF1F
:1001D000C20DD11D1882DF91CF911F910F91FF9019
:1001E000EF90DF90CF90BF90AF909F908F907F90D7
:1001F0006F905F904F903F902F900895642FCE01A5
:10020000DF91CF911F910F91FF90EF90DF90CF90F2
:10021000BF90AF909F908F907F906F905F904F9026
:100220003F902F900C94650077FF0EC0FC018DE28B
:10023000819344275527461B570B5F77662757FD49
:100240006095762FCF0105C0AB01662757FD6095FD
:10025000762F0C948700282FFC018E2F821B919102
:100260009111FBCF0895CF93DF93D82FC92F0E9410
:100270002B012FEF280F61E070E08AE0215038F069
:10028000AB01849FB001859F700D1124F7CFED2F36
:10029000FC2F20E030E0CAE0D0E08191992787FD73
:1002A0009095C097869FA001879F500D969F500DF7
:1002B0001124240F351FCB01BE010E940E056115CC
:1002C000710559F7C901DF91CF91089521E030E020
:1002D00090E0615048F0A901489F9001499F300D7E
:1002E000589F300D1124F5CFC901089589B9909315
:1002F000900088E18AB986E0809395000895809304
:1003000099009093980088E180939A0086E080930A
:100310009D0008958CB95D9BFECF089580939C004D
:1003200080919B0085FFFCCF08955F9BFECF8CB131
:10033000089580919B0087FFFCCF80919C000895D9
:10034000CF93DF93EC018991882319F00E948A01F1
:10035000FACFDF91CF910895CF93DF93EC0189918C
:10036000882319F00E948E01FACFDF91CF91089572
:10037000579A789490932401809323010895EAE991
:10038000F0E020812068208378949093220180936C
:10039000210108951F920F920FB60F9211242F93EF
:1003A0003F934F935F936F937F938F939F93AF93FD
:1003B000BF93EF93FF938CB1E0912301F09124015F
:1003C0000995FF91EF91BF91AF919F918F917F918F
:1003D0006F915F914F913F912F910F900FBE0F90B2
:1003E0001F9018951F920F920FB60F9211242F9302
:1003F0003F934F935F936F937F938F939F93AF93AD
:10040000BF93EF93FF9380919C00E0912101F091C5
:1004100022010995FF91EF91BF91AF919F918F912B
:100420007F916F915F914F913F912F910F900FBEF0
:100430000F901F90189588E784BB089583E021E012
:1004400030E041E0480FB90102C0660F771F8A957E
:10045000E2F765BB8FE19EE40197F1F700C0000071
:1004600083B3473008F043E0982F9770973011F42A
:10047000842FE7CF93B397709730E1F79FEF20E792
:1004800032E0915020403040E1F700C000008F770B
:100490000895DF92EF92FF920F931F93CF93DF9314
:1004A000CDB7DEB72C970FB6F894DEBF0FBECDBF29
:1004B0008C018CE0E8E0F1E0DE01119601900D92F4
:1004C0008A95E1F7F62E83E2E82E9AE2D92EFF20F4
:1004D00019F10E941E022CE09FEF920F9F3FD1F076
:1004E000E1E0F0E0EC0FFD1FE90FF11D3081831317
:1004F0000FC09A3019F4F801D08208C09B3019F46B
:10050000F801E08203C0215DF80120830F5F1F4FD7
:10051000292FE2CFFA94DBCF2C960FB6F894DEBFEA
:100520000FBECDBFDF91CF911F910F91FF90EF9044
:10053000DF900895CF93DF93CDB7DEB72C970FB63A
:10054000F894DEBF0FBECDBF8CE0E8E0F1E0DE0145
:10055000119601900D928A95E1F70E941E02382FA4
:1005600080E09CE02FEF290F9923A9F0E1E0F0E073
:10057000EC0FFD1FE20FF11D408134130AC02A3039
:1005800029F02B3029F08FE2890F03C08AE201C0E5
:1005900083E2922FE7CF2C960FB6F894DEBF0FBE02
:1005A000CDBFDF91CF910895EF92FF920F931F93EC
:1005B000CF93DF9300D000D000D0CDB7DEB78C0151
:1005C000F12C0E949A0290ED980F9A3080F4EE245C
:1005D000E394EF0CE1E0F0E0EC0FFD1FEF0DF11DF7
:1005E00080830115110551F1F801099527C0833267
:1005F00019F0F5E0FF1528F721E030E080E090E009
:10060000AAE0FA94E1E0F0E0EC0FFD1FEF0DF11D20
:10061000408150E040535109249FB001259F700D47
:10062000349F700D1124860F971FA901A49F90017C
:10063000A59F300D1124F110E4CF02C0FE2CD9CFBC
:1006400026960FB6F894DEBF0FBECDBFDF91CF91D7
:100650001F910F91FF90EF90089523B1982F907FF5
:100660002F70922B93B9E2E6F0E09081986090832E
:10067000000000009081977F908323B130E1839F39
:10068000C00111242F70282B23B9808188608083BA
:10069000000000008081877F80830895E2E6F0E01B
:1006A00090819D7F90830E942D038FE39FE10197AE
:1006B000F1F700C00000089582B1806F82B9E1E6D1
:1006C000F0E080818E6080832FEF89EF90E02150F1
:1006D00080409040E1F700C0000082E00E944E039D
:1006E00088E20E944E038CE00E944E0386E00E9446
:1006F0004E0381E00C944E0381E00E944E038FE391
:100700009FE10197F1F700C0000080E80C944E03D0
:10071000E2E6F0E09081926090830E942D038FE3E7
:100720009FE10197F1F700C000000895CF93DF9398
:10073000EC018991882319F00E948803FACFDF9198
:10074000CF910895CF93DF93982F862FEA019111CF
:1007500004C06031A8F4806811C0913021F4603188
:1007600078F4806C0BC0923021F4603148F48069D9
:1007700005C0933029F4603118F4806D0E944E0357
:10078000CE01DF91CF910C9496031F93CF93DF930B
:10079000182FC62FD42F40E050E00E94A2032D2F27
:1007A00030E02C0F311D2031310554F06FEF6C0F0C
:1007B00040E050E0812FDF91CF911F910C94A20374
:1007C000DD23A1F380E20E948803D150F9CFCF93BB
:1007D000DF93EB01880F880F880F805C0E944E0327
:1007E00088810E94880389810E9488038A810E94EF
:1007F00088038B810E9488038C810E9488038D81ED
:100800000E9488038E810E9488038F810E94880342
:1008100080E8DF91CF910C944E038FEF8ABB88E282
:1008200081BF8FE083BF82E087BF78940895E82F6F
:10083000F0E0E050FF4F608308956F7020E1829FE9
:10084000C0011124682B60686BBB0895FC012AE08D
:1008500030E0B9010E940E0580930001CB01B9017F
:100860000E940E0580930101CF0164E670E00E94B2
:100870000E05CB01B9010E940E0580930201CF0144
:1008800068EE73E00E940E05CB01B9010E940E05CF
:100890008093030108952AE0672B51F0622F0E9494
:1008A0000205909300010E940205909301010895B2
:1008B000622F0E940205909302010E94020590930C
:1008C000030108958130910539F018F0029731F055
:1008D000089510921D01089581E003C080911D01CB
:1008E000809580931D0108951F920F920FB60F926D
:1008F00011242F933F934F935F936F937F938F9325
:100900009F93AF93BF93EF93FF9380911C0184302B
:1009100059F480911D01882311F080EC01C080ED15
:100920008BBB10921C010CC0E82FF0E0E050FF4F91
:1009300060810E941D0480911C018F5F80931C01C7
:10094000FF91EF91BF91AF919F918F917F916F91A7
:100950005F914F913F912F910F900FBE0F901F907D
:1009600018950C948A010C948A01AF981A980895EE
:10097000AF9A1A9A089520912001261708F4622F41
:10098000482FFC0180911E01209104013091050146
:100990009E2F941B961780F4813410F010921E0144
:1009A00080911E0191E0980F90931E01D901A80F2C
:1009B000B11D8C918193E6CF280F311D3093050135
:1009C00020930401862F0895089580EF87BB80E867
:1009D00084BB84E082B983E390E00E94760183E3E4
:1009E00090E00E947F0184E191E00E94A00181EBF0
:1009F00094E00E94B8010E94B50483EB94E00E9449
:100A0000BF01FFCF991B79E004C0991F961708F02A
:100A1000961B881F7A95C9F780950895AA1BBB1B62
:100A200051E107C0AA1FBB1FA617B70710F0A61BEE
:100A3000B70B881F991F5A95A9F780959095BC010F
:100A4000CD010895A1E21A2EAA1BBB1BFD010DC00A
:100A5000AA1FBB1FEE1FFF1FA217B307E407F5076E
:100A600020F0A21BB30BE40BF50B661F771F881F4A
:100A7000991F1A9469F760957095809590959B01E0
:100A8000AC01BD01CF0108950E944F05A59F900DB7
:100A9000B49F900DA49F800D911D11240895A29FD5
:100AA000B001B39FC001A39F700D811D1124911D42
:100AB000B29F700D811D1124911D0895F894FFCFF0
:100AC0000A0A0A0A25012501450E0D0B16151326E3
:0C0AD000252346430A0D4865790A0D00F5
:00000001FF
