:100000000C9446000C9465000C9465000C946500FB
:100010000C9465000C9465000C9465000C946500CC
:100020000C9465000C9465000C9465000C946500BC
:100030000C9465000C9465000C9465000C946803A6
:100040000C9465000C9465000C9465000C9465009C
:100050000C9465000C9465000C9465000C9465008C
:100060000C9465000C9465000C9465000C9465007C
:100070000C9465000C9465000C9465000C9465006C
:100080000C9465000C9465000C94650011241FBE4F
:10009000CFEFD0E1DEBFCDBF11E0A0E0B1E0E2E5FF
:1000A000FAE000E00BBF02C007900D92A432B10746
:1000B000D9F721E0A4E2B1E001C01D92AA32B20753
:1000C000E1F70E9485040C9427050C940000FC01C4
:1000D000862F643678F064E60E94A504805D8083F4
:1000E000892F6AE00E94A504805D8183905D9283E0
:1000F000138208956A3048F06AE00E94A504805D8A
:100100008083905D918312820895805D8083118247
:1001100008952F923F924F925F926F927F928F92AB
:100120009F92AF92BF92CF92DF92EF92FF920F9386
:100130001F93CF93DF93EC016A017B0192E0392E8C
:1001400024E6822E912CA12CB12C8FEFC816D1045D
:10015000E104F10409F0F8F4642FCE01DF91CF91AE
:100160001F910F91FF90EF90DF90CF90BF90AF90D5
:100170009F908F907F906F905F904F903F902F90C7
:100180000C9467003394AAE0B0E0A50194010E94AA
:10019000E7044B015C01C701B601A50194010E946F
:1001A000C504232B242B252B69F7C501B4012AE0B4
:1001B00030E040E050E00E94C50449015A018E0140
:1001C000232C8AE0482E512C612C712C2A94FFEFAD
:1001D0002F1216C0C30DD11D1882DF91CF911F9130
:1001E0000F91FF90EF90DF90CF90BF90AF909F90D6
:1001F0008F907F906F905F904F903F902F900895D9
:10020000C701B601A50194010E94C504205DF80153
:1002100021938F016B017C01C501B401A3019201FF
:100220000E94C50449015A01D1CF88E784BB0895D3
:1002300093E041E050E021E0290FBA0102C0660FCF
:10024000771F9A95E2F765BB8FE19EE40197F1F77E
:1002500000C0000083B393E0273008F4922F282FCA
:100260002770273041F393B397709730E1F79FEFF2
:1002700020E732E0915020403040E1F700C000001C
:100280008F770895DF92EF92FF920F931F93CF9392
:10029000DF93CDB7DEB72C970FB6F894DEBF0FBE55
:1002A000CDBF8C01F62E8CE0E4E0F1E0DE0111968A
:1002B00001900D928A95E1F783E2E82E9AE2D92E19
:1002C000FA94FFEFFF120EC02C960FB6F894DEBF23
:1002D0000FBECDBFDF91CF911F910F91FF90EF9097
:1002E000DF9008950E9418012CE09FEF920F9F3F2E
:1002F00039F3E1E0F0E0EC0FFD1FE90FF11D308173
:10030000381306C09A3031F4F801D0820F5F1F4FC6
:10031000292FEBCF9B3019F4F801E082F7CF215D54
:10032000F8012083F3CFCF93DF93CDB7DEB72C97BF
:100330000FB6F894DEBF0FBECDBF8CE0E4E0F1E075
:10034000DE01119601900D928A95E1F70E94180145
:10035000382F80E09CE02FEF290F911109C02C96D7
:100360000FB6F894DEBF0FBECDBFDF91CF910895D9
:10037000E1E0F0E0EC0FFD1FE20FF11D40814313BF
:1003800008C08AE22A3029F08FE2890F2B3009F465
:1003900083E2922FE0CFEF92FF920F931F93CF93C0
:1003A000DF9300D000D000D0CDB7DEB77C0110E0E5
:1003B0000E94930190ED980F9A3090F401E0010FA4
:1003C000E1E0F0E0EC0FFD1FE10FF11D8083E1148F
:1003D000F10411F0F7010995102F163048F302C00F
:1003E0008332D9F7EFEFE10FF0E03196BE016F5F96
:1003F0007F4FE60FF71F21E030E090E080E0AAE0B9
:1004000042914053550B429F8001439F100D529FD4
:10041000100D1124800F911FA901A49F9001A59F89
:10042000300D11246E177F0759F726960FB6F894F2
:10043000DEBF0FBECDBFDF91CF911F910F91FF9017
:10044000EF90089593B19F70282F207F922B93B93E
:10045000E2E6F0E0908198609083000000009081D7
:10046000977F908393B19F7040E1849F9001112406
:10047000892F822B83B980818860808300000000EF
:100480008081877F80830895E2E6F0E090819D7F00
:1004900090830E9422028FE39FE10197F1F700C051
:1004A0000000089582B1806F82B9E1E6F0E08081BA
:1004B0008E6080832FEF89EF90E021508040904044
:1004C000E1F700C0000082E00E94440288E20E943E
:1004D00044028CE00E94440286E00E94440281E0D3
:1004E0000C94440281E00E9444028FE39FE1019753
:1004F000F1F700C0000080E80C944402E2E6F0E06E
:100500009081926090830E9422028FE39FE1019785
:10051000F1F700C000000895CF93DF93EC018991BB
:10052000811103C0DF91CF9108950E947E02F7CF21
:10053000CF93DF93982F862FEA0191110AC0603183
:1005400018F480680E944402CE01DF91CF910C9490
:100550008C02913021F46031B8F7806CF3CF923087
:1005600021F4603188F78069EDCF933069F760310D
:1005700058F7806DE7CF1F93CF93DF93182FC62FC7
:10058000D42F50E040E00E9498022C2F2D0F3327EB
:10059000331F203131056CF06FEF6C0F50E040E0FD
:1005A000812FDF91CF911F910C94980280E20E94DD
:1005B0007E02D150D8F7F0CFCF93DF93EB01885F65
:1005C000880F880F880F0E94440288810E947E0253
:1005D00089810E947E028A810E947E028B810E9414
:1005E0007E028C810E947E028D810E947E028E811D
:1005F0000E947E028F810E947E0280E8DF91CF916F
:100600000C9444028FEF8ABB88E281BF8FE083BFE6
:1006100082E087BF78940895E82FF0E0E050FF4F24
:10062000608308956F7020E1829FC0011124682BC0
:1006300060686BBB0895CF93DF93EC01E0E0F1E0DD
:100640002AE030E0B9010E94B1048083CB01B901F6
:100650000E94B1048183CE0164E670E00E94B1047F
:10066000CB01B9010E94B1048283CE0168EE73E030
:100670000E94B104CB01B9010E94B1048383DF91D0
:10068000CF910895AB013AE0632F0E94A504292F72
:100690000E94A504452B29F02093000190930101AD
:1006A00008952093020190930301089581309105EC
:1006B00039F018F0029741F008951092250108953D
:1006C00081E0809325010895809125018095F9CFDF
:1006D0001F920F920FB60F9211240BB60F922F9309
:1006E0003F934F935F936F937F938F939F93AF93BA
:1006F000BF93EF93FF93809124018430E9F48091BC
:1007000025018823B9F080EC8BBB10922401FF9166
:10071000EF91BF91AF919F918F917F916F915F9179
:100720004F913F912F910F900BBE0F900FBE0F90E6
:100730001F90189580EDE8CFE82FF0E0E050FF4FD4
:1007400060810E941203809124018F5F80932401B5
:10075000DECF80EF87BB81BB83E0809329018FE1EF
:1007600090E024C02091290140E1249F90011124B0
:1007700028BB20912901207F22BB2FEF39E648E1D9
:10078000215030404040E1F700C000002091290195
:10079000203C09F491E020912901233051F091305F
:1007A00041F4209129012695209329018150D1F609
:1007B000089590912901990F90932901D1CFCF935A
:1007C000DF938BE080932801C3E8DBE0C15019F48C
:1007D000DF91CF9108958091280161E070E00E943F
:1007E0004203809128018F5F809328018091280126
:1007F000823210F0D09328012FEF83EC99E0215042
:1008000080409040E1F700C00000E0CFCF93DF933D
:1008100000D01F92CDB7DEB76AE082E00E940C03E1
:100820006AE083E00E940C03139AA79A8091270143
:100830000E9493018983682F83E00E940C030E9429
:1008400093018A83682F82E00E940C031B82CE01F1
:1008500001960E940105809327018091270182342F
:1008600059F4AF981B9A81E0809326010F900F9066
:100870000F90DF91CF9108951B98AF9A10922601A7
:10088000F5CFCF93DF9300D000D01F92CDB7DEB766
:1008900040E151E060E080E00E949802609129010F
:1008A000CE0101960E946700AE014F5F5F4F60E08E
:1008B00081E00E94980260912701CE0101960E947A
:1008C0006700AE014F5F5F4F60E082E00E949802D8
:1008D000809126014FE060E0882389F083E00E9448
:1008E000BB024DE151E060E083E00E9498020F906E
:1008F0000F900F900F900F90DF91CF91089583E0AC
:100900000E94BB024BE151E0EECF0E9415010E9414
:1009100052020E94020310926400809163008F7063
:10092000823069F028F48130C1F70E94A903F5CF25
:10093000843041F0883089F70E944104EECF0E9454
:10094000DF03EBCF0E940604E8CF991B79E004C0D7
:10095000991F961708F0961B881F7A95C9F78095FE
:100960000895AA1BBB1B51E107C0AA1FBB1FA617F6
:10097000B70710F0A61BB70B881F991F5A95A9F748
:1009800080959095BC01CD010895A1E21A2EAA1B75
:10099000BB1BFD010DC0AA1FBB1FEE1FFF1FA2172F
:1009A000B307E407F50720F0A21BB30BE40BF50B2C
:1009B000661F771F881F991F1A9469F760957095B5
:1009C000809590959B01AC01BD01CF0108950E94D7
:1009D000F204A59F900DB49F900DA49F800D911DD2
:1009E00011240895A29FB001B39FC001A39F700D71
:1009F000811D1124911DB29F700D811D1124911D27
:100A00000895FC0188279927E89421912032E9F381
:100A1000293010F02E30C8F32B3241F02D3239F44A
:100A2000689404C00E941F05820F911D21912053DC
:100A30002A30C0F31EF4909581959F4F08957AE077
:100A4000979F902D879F802D910D11240895F894E4
:020A5000FFCFD6
:100A52000A0A0A0A450E0D0B1615132625234643CC
:100A620042616E205A6F6C74616E00494E56414C61
:040A720049440000F3
:00000001FF
