:100000000C9446000C9465000C9465000C946500FB
:100010000C9465000C9465000C9465000C946500CC
:100020000C9465000C9465000C9465000C946500BC
:100030000C9465000C9465000C9465000C946903A5
:100040000C9465000C9465000C9465000C9465009C
:100050000C9465000C9465000C9465000C9465008C
:100060000C9465000C9465000C9465000C9465007C
:100070000C9465000C9465000C9465000C9465006C
:100080000C9465000C9465000C94650011241FBE4F
:10009000CFEFD0E1DEBFCDBF11E0A0E0B1E0EEEAEE
:1000A000F8E000E00BBF02C007900D92AA33B10741
:1000B000D9F721E0AAE3B1E001C01D92AC33B20749
:1000C000E1F70E94AA030C9455040C940000FC0173
:1000D000862F643680F064E60E94F90320E3280F3F
:1000E0002083892F6AE00E94F903805D8183905DFF
:1000F0009283138208956A3048F06AE00E94F903FF
:10010000805D8083905D918312820895805D8083FD
:10011000118208952F923F924F925F926F927F9239
:100120008F929F92AF92BF92CF92DF92EF92FF9207
:100130000F931F93CF93DF93EC016A017B014F3F35
:1001400051056105710509F008F45BC092E0392E94
:1001500024E6822E912CA12CB12CC701B601A50159
:1001600094010E941904232B242B252B51F0339446
:10017000AAE0B0E0A50194010E943B044B015C01A0
:10018000ECCFC501B4012AE030E040E050E00E942D
:10019000190449015A018E01232C8AE0482E512C62
:1001A000612C712C2A94FFEF2F16A9F0C701B6011C
:1001B000A50194010E941904205DF80121938F018B
:1001C0006B017C01C501B401A30192010E941904D5
:1001D00049015A01E7CFC30DD11D1882DF91CF919C
:1001E0001F910F91FF90EF90DF90CF90BF90AF9055
:1001F0009F908F907F906F905F904F903F902F9047
:100200000895642FCE01DF91CF911F910F91FF9040
:10021000EF90DF90CF90BF90AF909F908F907F90A6
:100220006F905F904F903F902F900C94670088E7FD
:1002300084BB089583E041E050E091E0980F9A017B
:1002400001C0220F8A95EAF725BBEFE1FEE4319762
:10025000F1F700C0000083B3973008F093E0282F37
:100260002770273011F4892FE8CF93B39770973018
:10027000E1F7FFEF20E732E0F15020403040E1F7B6
:1002800000C000008F770895DF92EF92FF920F93E6
:100290001F93CF93DF93CDB7DEB72C970FB6F894AB
:1002A000DEBF0FBECDBF7C018CE0E4E0F1E0DE01FB
:1002B000119601900D928A95E1F7162F03E28AE2DA
:1002C000D82E112321F10E941A012CE09FEF920FEA
:1002D0009F3FD9F0E1E0F0E0EC0FFD1FE90FF11DC9
:1002E0003081831310C09A3019F4F701D08208C00E
:1002F0009B3019F4F701008303C0215DF7012083CF
:10030000FFEFEF1AFF0A292FE1CF1150DACF2C9619
:100310000FB6F894DEBF0FBECDBFDF91CF911F9116
:100320000F91FF90EF90DF9008951F93CF93DF938D
:10033000CDB7DEB72C970FB6F894DEBF0FBECDBF9A
:100340008CE0E4E0F1E0DE01119601900D928A95D7
:10035000E1F70E941A019CE02FEF290F9923A9F0E1
:10036000E1E0F0E0EC0FFD1FE20FF11D308183139F
:100370000AC02A3029F02B3029F01FE2190F03C0E0
:100380001AE201C013E2922FE7CF812F2C960FB60D
:10039000F894DEBF0FBECDBFDF91CF911F910895BE
:1003A000EF92FF920F931F93CF93DF9300D000D073
:1003B00000D0CDB7DEB77C0110E00E94950190ED32
:1003C000980F9A3078F401E0010FE1E0F0E0EC0FD3
:1003D000FD1FE10FF11D8083E114F10449F1F701E4
:1003E000099526C0833211F0163038F341E050E011
:1003F00080E090E06AE01150E1E0F0E0EC0FFD1FDA
:10040000E10FF11D208130E020533109249FF001DC
:10041000259FF00D349FF00D11248E0F9F1F9A0120
:10042000629FA001639F500D11241111E4CF02C0FF
:10043000102FDACF26960FB6F894DEBF0FBECDBFD1
:10044000DF91CF911F910F91FF90EF90089593B19D
:100450009F70282F207F922B93B9E2E6F0E09081E5
:1004600098609083000000009081977F908323B173
:100470002F7030E1839FC0011124822B83B98081CA
:1004800088608083000000008081877F80830895DA
:10049000E2E6F0E090819D7F90830E9427028FE347
:1004A0009FE10197F1F700C00000089582B1806FCD
:1004B00082B9E1E6F0E080818E6080832FEF89EFE2
:1004C00090E0215080409040E1F700C0000082E0C1
:1004D0000E94480288E20E9448028CE00E94480282
:1004E00086E00E94480281E00C94480281E00E946C
:1004F00048028FE39FE10197F1F700C0000080E818
:100500000C944802E2E6F0E09081926090830E94B1
:1005100027028FE39FE10197F1F700C000000895E3
:10052000CF93DF93EC018991882319F00E94820216
:10053000FACFDF91CF910895CF93DF93982F862F35
:10054000EA01911104C06031A8F4806811C09130B3
:1005500021F4603178F4806C0BC0923021F460316A
:1005600048F4806905C0933029F4603118F4806D37
:100570000E944802CE01DF91CF910C9490021F930C
:10058000CF93DF93182FD62FC42F40E050E00E9466
:100590009C028C2F90E08D0F911D409754F06FEFCF
:1005A0006D0F40E050E0812FDF91CF911F910C94AF
:1005B0009C02CC23A1F380E20E948202C150F9CFB9
:1005C000CF93DF93EB01880F880F880F805C0E9428
:1005D000480288810E94820289810E9482028A8167
:1005E0000E9482028B810E9482028C810E94820280
:1005F0008D810E9482028E810E9482028F810E94E0
:10060000820280E8DF91CF910C9448028FEF8ABB81
:1006100088E281BF8FE083BF82E087BF789408952E
:100620006F7020E1829FC0011124862B80688BBBF4
:100630000895CF93DF93EC01E0E0F1E02AE030E0B1
:10064000B9010E9405048083CB01B9010E94050411
:100650008183CE0164E670E00E940504CB01B901FC
:100660000E9405048283CE0168EE73E00E940504B7
:10067000CB01B9010E9405048383DF91CF910895D6
:100680002AE0672B51F0622F0E94F903909300013A
:100690000E94F903909301010895622F0E94F903CB
:1006A000909302010E94F903909303010895813011
:1006B000910539F018F0029731F0089510923B013E
:1006C000089581E003C080913B01809580933B01B8
:1006D00008951F920F920FB60F9211240BB60F922E
:1006E0002F933F934F935F936F937F938F939F933A
:1006F000AF93BF93EF93FF9380913A01843059F405
:1007000080913B01882311F080EC01C080ED8BBB10
:1007100010923A010CC0E82FF0E0E050FF4F6081EA
:100720000E94100380913A018F5F80933A01FF91FC
:10073000EF91BF91AF919F918F917F916F915F9159
:100740004F913F912F910F900BBE0F900FBE0F90C6
:100750001F901895CF93DF9300D000D0CDB7DEB7B0
:100760000E9417010E9456028FE790E09093870045
:100770008093860080918B00816880938B008091AC
:100780008A00846080938A00139A40E151E060E01F
:1007900080E00E949C024FE060E082E00E94BF0285
:1007A00041E251E060E082E00E949C02609186009C
:1007B00070918700CE0101960E946700CE010196DC
:1007C0000E9490024FE060E083E00E94BF024EE290
:1007D00051E060E083E00E949C0282E892E00E9487
:1007E000D0018F3FC1F299279093870080938600B4
:1007F000D2CF991B79E004C0991F961708F0961B79
:10080000881F7A95C9F780950895AA1BBB1B51E1F3
:1008100007C0AA1FBB1FA617B70710F0A61BB70B70
:10082000881F991F5A95A9F780959095BC01CD0115
:100830000895A1E21A2EAA1BBB1BFD010DC0AA1F21
:10084000BB1FEE1FFF1FA217B307E407F50720F039
:10085000A21BB30BE40BF50B661F771F881F991FB4
:100860001A9469F760957095809590959B01AC01FD
:10087000BD01CF0108950E944604A59F900DB49F2D
:10088000900DA49F800D911D11240895A29FB00189
:10089000B39FC001A39F700D811D1124911DB29FB4
:0E08A000700D811D1124911D0895F894FFCF55
:1008AE000A0A0A0A450E0D0B161513262523464372
:1008BE0050574D2076616C756528302D32353529AF
:1008CE000043757272656E742076616C3A004E65E7
:0A08DE00772076616C75653A200002
:00000001FF
