:100000000C9446000C9465000C9465000C946500FB
:100010000C9465000C9465000C9465000C946500CC
:100020000C9465000C9465000C9465000C946500BC
:100030000C9465000C9465000C9465000C941704F6
:100040000C9465000C9465000C9498010C94650068
:100050000C9465000C9465000C9465000C9465008C
:100060000C9465000C9465000C9465000C9465007C
:100070000C9465000C9465000C9465000C9465006C
:100080000C9465000C9465000C94650011241FBE4F
:10009000CFEFD0E1DEBFCDBF11E0A0E0B1E0E2E5FF
:1000A000FBE000E00BBF02C007900D92AA38B10739
:1000B000D9F721E0AAE8B1E001C01D92AE38B2073D
:1000C000E1F70E9463040C94A7050C940000FC0166
:1000D000862F643678F064E60E944B05805D80834D
:1000E000892F6AE00E944B05805D8183905D928339
:1000F000138208956A3048F06AE00E944B05805DE3
:100100008083905D918312820895805D8083118247
:1001100008952F923F924F925F926F927F928F92AB
:100120009F92AF92BF92CF92DF92EF92FF920F9386
:100130001F93CF93DF93EC016A017B0192E0392E8C
:1001400024E6822E912CA12CB12C8FEFC816D1045D
:10015000E104F10409F0F8F4642FCE01DF91CF91AE
:100160001F910F91FF90EF90DF90CF90BF90AF90D5
:100170009F908F907F906F905F904F903F902F90C7
:100180000C9467003394AAE0B0E0A50194010E94AA
:100190008D054B015C01C701B601A50194010E94C8
:1001A0006B05232B242B252B69F7C501B4012AE00D
:1001B00030E040E050E00E946B0549015A018E0199
:1001C000232C8AE0482E512C612C712C2A94FFEFAD
:1001D0002F1216C0C30DD11D1882DF91CF911F9130
:1001E0000F91FF90EF90DF90CF90BF90AF909F90D6
:1001F0008F907F906F905F904F903F902F900895D9
:10020000C701B601A50194010E946B05205DF801AC
:1002100021938F016B017C01C501B401A3019201FF
:100220000E946B0549015A01D1CF77FF0EC0FC0136
:100230008DE2819344275527461B570B052E000C52
:10024000660B770BCF010C948900AB01770F660B1F
:10025000770BF9CF282FFC018E2F821B91919111E2
:10026000FBCF0895CF93DF93D82FC92F0E942A0187
:10027000815061E070E09AE08150F8F4ED2FFC2F9E
:1002800030E020E0CAE0D0E08191082E000C990B0C
:10029000C097869FA001879F500D969F500D1124F7
:1002A000240F351FCB01BE010E9457056115710552
:1002B00059F7C901DF91CF9108959B01929FB00139
:1002C000939F700D1124D8CF21E030E090E0615071
:1002D00010F4C9010895A901489F9001499F300D6C
:1002E000589F300D1124F3CF89B99093900088E185
:1002F0008AB986E08093950008958CB95D9BFECF06
:1003000008955F9BFECF8CB10895CF93DF93EC01EE
:100310008991811103C0DF91CF9108950E947D01E1
:10032000F7CF579A789490938D0180938C0108951C
:100330001F920F920FB60F9211240BB60F922F93AC
:100340003F934F935F936F937F938F939F93AF935D
:10035000BF93EF93FF938CB1E0918C01F0918D01ED
:100360000995FF91EF91BF91AF919F918F917F91EF
:100370006F915F914F913F912F910F900BBE0F9016
:100380000FBE0F901F90189588E784BB089593E0E7
:1003900041E050E021E0290FBA0102C0660F771F4B
:1003A0009A95E2F765BB8FE19EE40197F1F700C0F3
:1003B000000083B393E0273008F4922F282F277092
:1003C000273041F393B397709730E1F79FEF20E721
:1003D00032E0915020403040E1F700C000008F77BC
:1003E0000895DF92EF92FF920F931F93CF93DF93C5
:1003F000CDB7DEB72C970FB6F894DEBF0FBECDBFDA
:100400008C01F62E8CE0E4E0F1E0DE011196019023
:100410000D928A95E1F783E2E82E9AE2D92EFA94BA
:10042000FFEFFF120EC02C960FB6F894DEBF0FBE82
:10043000CDBFDF91CF911F910F91FF90EF90DF9093
:1004400008950E94C7012CE09FEF920F9F3F39F360
:10045000E1E0F0E0EC0FFD1FE90FF11D30813813F2
:1004600006C09A3031F4F801D0820F5F1F4F292F58
:10047000EBCF9B3019F4F801E082F7CF215DF80152
:100480002083F3CFCF93DF93CDB7DEB72C970FB692
:10049000F894DEBF0FBECDBF8CE0E4E0F1E0DE01FA
:1004A000119601900D928A95E1F70E94C701382FAD
:1004B00080E09CE02FEF290F911109C02C960FB618
:1004C000F894DEBF0FBECDBFDF91CF910895E1E07C
:1004D000F0E0EC0FFD1FE20FF11D4081431308C057
:1004E0008AE22A3029F08FE2890F2B3009F483E267
:1004F000922FE0CFEF92FF920F931F93CF93DF9352
:1005000000D000D000D0CDB7DEB77C0110E00E9453
:10051000420290ED980F9A3090F401E0010FE1E073
:10052000F0E0EC0FFD1FE10FF11D8083E114F104F9
:1005300011F0F7010995102F163048F302C08332ED
:10054000D9F7EFEFE10FF0E03196BE016F5F7F4F1B
:10055000E60FF71F21E030E090E080E0AAE0429152
:100560004053550B429F8001439F100D529F100D29
:100570001124800F911FA901A49F9001A59F300D08
:1005800011246E177F0759F726960FB6F894DEBF31
:100590000FBECDBFDF91CF911F910F91FF90EF90D4
:1005A000089593B19F70282F207F922B93B9E2E694
:1005B000F0E0908198609083000000009081977F28
:1005C000908393B19F7040E1849F90011124892F03
:1005D000822B83B980818860808300000000808145
:1005E000877F80830895E2E6F0E090819D7F90838D
:1005F0000E94D1028FE39FE10197F1F700C0000054
:10060000089582B1806F82B9E1E6F0E080818E606A
:1006100080832FEF89EF90E0215080409040E1F7F8
:1006200000C0000082E00E94F30288E20E94F30210
:100630008CE00E94F30286E00E94F30281E00C94B9
:10064000F30281E00E94F3028FE39FE10197F1F74B
:1006500000C0000080E80C94F302E2E6F0E0908134
:10066000926090830E94D1028FE39FE10197F1F79E
:1006700000C000000895CF93DF93EC0189918111B0
:1006800003C0DF91CF9108950E942D03F7CFCF9340
:10069000DF93982F862FEA0191110AC0603118F478
:1006A00080680E94F302CE01DF91CF910C943B034E
:1006B000913021F46031B8F7806CF3CF923021F49F
:1006C000603188F78069EDCF933069F7603158F772
:1006D000806DE7CF1F93CF93DF93182FC62FD42FB2
:1006E00050E040E00E9447032C2F2D0F3327331F8B
:1006F000203131056CF06FEF6C0F50E040E0812F3E
:10070000DF91CF911F910C94470380E20E942D034B
:10071000D150D8F7F0CFCF93DF93EB01885F880FEC
:10072000880F880F0E94F30288810E942D0389811F
:100730000E942D038A810E942D038B810E942D032C
:100740008C810E942D038D810E942D038E810E9439
:100750002D038F810E942D0380E8DF91CF910C94AF
:10076000F3028FEF8ABB88E281BF8FE083BF82E014
:1007700087BF78940895E82FF0E0E050FF4F608342
:1007800008956F7020E1829FC0011124682B60687A
:100790006BBB0895CF93DF93EC01E0E0F1E02AE03A
:1007A00030E0B9010E9457058083CB01B9010E9456
:1007B00057058183CE0164E670E00E945705CB01A6
:1007C000B9010E9457058283CE0168EE73E00E9452
:1007D0005705CB01B9010E9457058383DF91CF9163
:1007E0000895AB013AE0632F0E944B05292F0E9428
:1007F0004B05452B29F020930001909301010895AA
:10080000209302019093030108958130910539F0FE
:1008100018F0029741F0089510928B01089581E03D
:1008200080938B01089580918B018095F9CF1F9261
:100830000F920FB60F9211240BB60F922F933F9386
:100840004F935F936F937F938F939F93AF93BF93D8
:10085000EF93FF9380918A018430E9F480918B01BA
:100860008823B9F080EC8BBB10928A01FF91EF9145
:10087000BF91AF919F918F917F916F915F914F91B8
:100880003F912F910F900BBE0F900FBE0F901F90B6
:10089000189580EDE8CFE82FF0E0E050FF4F608141
:1008A0000E94C10380918A018F5F80938A01DECF0D
:1008B0000C947D01982F907F92BB20E1829FC00114
:1008C000112488BB0895CF93DF93CDB7DEB72B9764
:1008D0000FB6F894DEBF0FBECDBF0E94010344E106
:1008E00051E060E080E00E9447034EE151E060E0AB
:1008F00081E00E94470387E690E00E9474018FE246
:1009000091E00E94850188E594E00E9491010E9497
:10091000C4018E010F5F1F4F87E0F80111928A9585
:10092000E9F78091100190911101A0911201B0910D
:10093000130188879987AA87BB8748E751E060E061
:1009400082E00E944703D12C7801B12CA12C0E9497
:100950004202F70180838332A9F51082C8010E9408
:1009600032015C0180E20E947D0189E791E00E94F2
:10097000850148E751E066E082E00E9447038DE789
:1009800091E00E948501D394F3E0FD1508F4D12C89
:10099000E8E0F0E0EC0FFD1FED0DF11DF0808F2D74
:1009A0000E942D038F2D0E947D0181E891E00E941D
:1009B0003B030E94420289838332D9F280E20E9483
:1009C0007D017801F701808190ED980F9A3038F41D
:1009D0000E942D03F70181917F010E947D01F701A3
:1009E00080818A3209F0B3CF1082C8010E9432019F
:1009F0007C01FE01ED0DF11D9084FBE26501C80E46
:100A0000D91E9F16F1F0F91534F08AE2981691F08C
:100A1000D12CC12C16C0EDE26501C81AD90A9E1668
:100A200081F0FFE29F12F4CFC501B7010E94570584
:100A30006B0107C0AE9C6001AF9CD00CBE9CD00C7B
:100A40001124A50170E060E0C8010E948900A8019E
:100A500060E083E00E944703892D0E942D03A701D7
:100A600070E060E0C8010E948900C8010E943B0359
:100A700084E891E00E943B0386E891E00E948501B2
:100A8000B601C8010E941501C8010E943B03C801BC
:100A90000E948501FFCF991B79E004C0991F96172A
:100AA00008F0961B881F7A95C9F780950895AA1BB0
:100AB000BB1B51E107C0AA1FBB1FA617B70710F049
:100AC000A61BB70B881F991F5A95A9F7809590957B
:100AD000BC01CD010895A1E21A2EAA1BBB1BFD018A
:100AE0000DC0AA1FBB1FEE1FFF1FA217B307E4070D
:100AF000F50720F0A21BB30BE40BF50B661F771F65
:100B0000881F991F1A9469F7609570958095909544
:100B10009B01AC01BD01CF0108950E949805A59FDE
:100B2000900DB49F900DA49F800D911D11240895E8
:100B3000A29FB001B39FC001A39F700D811D11241E
:100B4000911DB29F700D811D1124911D0895F8947F
:020B5000FFCFD5
:100B52000A0A0A0A450E0D0B1615132625234643CB
:100B62002F2B2D2A554152542043414C43004869B2
:100B7200742023666F72202B202D202A202F000A3A
:100B82000A0A0D554152542043616C63756C6174BD
:100B92006F720A0D55736520746865206B657970F4
:100BA2006164206F6E2074686520542D62697264DE
:100BB20020746F20656E7465722074686520667596
:100BC2006E6374696F6E0A0D001B5B43001B5B440E
:0A0BD200002020003D00203D20001F
:00000001FF
