:100000000C9446000C9465000C9465000C946500FB
:100010000C9465000C9465000C9465000C946500CC
:100020000C9465000C9465000C9465000C946500BC
:100030000C9492040C9445050C9465000C942904CE
:100040000C9465000C9465000C94A1010C9465005F
:100050000C9465000C9465000C9465000C9465008C
:100060000C9465000C9465000C9465000C9465007C
:100070000C9465000C9465000C9465000C9465006C
:100080000C9465000C9465000C94650011241FBE4F
:10009000CFEFD0E1DEBFCDBF11E0A0E0B1E0E2EEF6
:1000A000FCE000E00BBF02C007900D92A239B1073F
:1000B000D9F721E0A2E9B1E001C01D92A939B20748
:1000C000E1F70E94A8050C946F060C940000FC0157
:1000D000862F643680F064E60E94130620E3280F22
:1000E0002083892F6AE00E941306805D8183905DE2
:1000F0009283138208956A3048F06AE00E941306E2
:10010000805D8083905D918312820895805D8083FD
:10011000118208952F923F924F925F926F927F9239
:100120008F929F92AF92BF92CF92DF92EF92FF9207
:100130000F931F93CF93DF93EC016A017B014F3F35
:1001400051056105710509F008F45BC092E0392E94
:1001500024E6822E912CA12CB12CC701B601A50159
:1001600094010E943306232B242B252B51F033942A
:10017000AAE0B0E0A50194010E9455064B015C0184
:10018000ECCF232CC501B4012AE030E040E050E080
:100190000E94330649015A018E018AE0482E512CF3
:1001A000612C712C2A94FFEF2F16A9F0C701B6011C
:1001B000A50194010E943306205DF80121938F016F
:1001C0006B017C01C501B401A30192010E943306B9
:1001D00049015A01E7CFC30DD11D1882DF91CF919C
:1001E0001F910F91FF90EF90DF90CF90BF90AF9055
:1001F0009F908F907F906F905F904F903F902F9047
:100200000895642FCE01DF91CF911F910F91FF9040
:10021000EF90DF90CF90BF90AF909F908F907F90A6
:100220006F905F904F903F902F900C94670077FFF6
:100230000EC0FC018DE2819344275527461B570BC6
:100240005F77052E000C660B770BCF0104C0AB0166
:10025000770F660B770B0C948A00282FFC018E2FEA
:10026000821B91919111FBCF08950F931F93CF9310
:10027000DF93D82FC92F0E942D012FEF280F61E0A7
:1002800070E08AE0215038F0AB01849FB001859F77
:10029000700D1124F7CFED2FFC2FC0E0D0E00AE065
:1002A00010E02191022E000C330B20533109269FC0
:1002B000C001279F900D369F900D1124C80FD91FA4
:1002C000CB01B8010E941F066115710551F7CE01DF
:1002D000DF91CF911F910F91089521E030E090E0E0
:1002E000615048F0A901489F9001499F300D589FE7
:1002F000300D1124F5CFC901089589B9909390006C
:1003000088E18AB986E08093950008958CB95D9B59
:10031000FECF08955F9BFECF8CB10895CF93DF93FE
:10032000EC018991882319F00E948601FACFDF91B0
:10033000CF910895579A7894909395018093940162
:1003400008951F920F920FB60F9211240BB60F92C1
:100350002F933F934F935F936F937F938F939F93CD
:10036000AF93BF93EF93FF938CB1E0919401F09121
:1003700095010995FF91EF91BF91AF919F918F9159
:100380007F916F915F914F913F912F910F900BBE95
:100390000F900FBE0F901F90189588E784BB0895AB
:1003A00093E041E050E021E0290FBA0102C0660F5E
:1003B000771F9A95E2F765BB8FE19EE40197F1F70D
:1003C00000C0000083B3273010F093E001C0922FEB
:1003D000282F2770273039F38F7793B39770973092
:1003E000E1F79FEF20E732E0915020403040E1F705
:1003F00000C000000895DF92EF92FF920F931F93C9
:10040000CF93DF93CDB7DEB72C970FB6F894DEBF4E
:100410000FBECDBF7C018CE0ECE7F1E0DE01119670
:1004200001900D928A95E1F7162F03E28AE2D82E09
:10043000112321F10E94D0012CE09FEF920F9F3FEA
:10044000D9F0E1E0F0E0EC0FFD1FE90FF11D308184
:10045000831310C09A3019F4F701D08208C09B3082
:1004600019F4F701008303C0215DF7012083FFEF3A
:10047000EF1AFF0A292FE1CF1150DACF2C960FB6D1
:10048000F894DEBF0FBECDBFDF91CF911F910F91CA
:10049000FF90EF90DF900895CF93DF93CDB7DEB755
:1004A0002C970FB6F894DEBF0FBECDBF8CE0ECE703
:1004B000F1E0DE01119601900D928A95E1F70E941C
:1004C000D001382F80E09CE02FEF290F9923A9F06D
:1004D000E1E0F0E0EC0FFD1FE20FF11D408134136D
:1004E0000AC02A3029F02B3029F08FE2890F03C08F
:1004F0008AE201C083E2922FE7CF2C960FB6F894E0
:10050000DEBF0FBECDBFDF91CF910895EF92FF9276
:100510000F931F93CF93DF9300D000D000D0CDB7BF
:10052000DEB77C0110E00E944C0290ED980F9A30EB
:1005300078F401E0010FE1E0F0E0EC0FFD1FE10FC6
:10054000F11D8083E114F10449F1F701099526C0FA
:10055000833211F0163038F341E050E080E090E053
:100560006AE01150E1E0F0E0EC0FFD1FE10FF11D3A
:10057000208130E020533109429FF001439FF00D6C
:10058000529FF00D11248E0F9F1F9A01629FA001B0
:10059000639F500D11241111E4CF02C0102FDACF48
:1005A00026960FB6F894DEBF0FBECDBFDF91CF9178
:1005B0001F910F91FF90EF90089593B1282F207F06
:1005C0009F70922B93B9E2E6F0E09081986090835F
:1005D000000000009081977F908323B130E1839FDA
:1005E000C0011124922F9F70892B83B9808188606C
:1005F0008083000000008081877F80830895E2E689
:10060000F0E090819D7F90830E94DD028FE39FE167
:100610000197F1F700C00000089582B1806F82B9A0
:10062000E1E6F0E080818E6080832FEF89EF90E03B
:10063000215080409040E1F700C0000082E00E941D
:10064000FF0288E20E94FF028CE00E94FF0286E027
:100650000E94FF0281E00C94FF0281E00E94FF02F1
:100660008FE39FE10197F1F700C0000080E80C9450
:10067000FF02E2E6F0E09081926090830E94DD024A
:100680008FE39FE10197F1F700C000000895CF9339
:10069000DF93EC018991882319F00E943903FACF86
:1006A000DF91CF910895CF93DF93EA01811105C0C7
:1006B0006031C8F4862F806814C0813029F460311D
:1006C00090F4862F806C0DC0823029F4603158F48C
:1006D000862F806906C0833031F4603120F4862F84
:1006E000806D0E94FF02CE01DF91CF910C944703F1
:1006F0001F93CF93DF93182FD62FC42F40E050E0E5
:100700000E9453032C2F30E02D0F311D2031310575
:1007100054F06FEF6D0F40E050E0812FDF91CF91EB
:100720001F910C945303CC23A1F380E20E94390360
:10073000C150F9CFCF93DF93EB01880F880F880F5B
:10074000805C0E94FF0288810E94390389810E9497
:1007500039038A810E9439038B810E9439038C817D
:100760000E9439038D810E9439038E810E943903D2
:100770008F810E94390380E8DF91CF910C94FF02B2
:100780008FEF8ABB88E281BF8FE083BF82E087BFA3
:1007900078940895E82FF0E0E050FF4F60830895CB
:1007A0006F7020E1829FC0011124862B80688BBB73
:1007B0000895CF93DF93EC01E0E0F1E02AE030E030
:1007C000B9010E941F068083CB01B9010E941F0658
:1007D0008183CE0164E670E00E941F06CB01B9015F
:1007E0000E941F068283CE0168EE73E00E941F06FE
:1007F000CB01B9010E941F068383DF91CF91089539
:100800002AE0672B51F0622F0E941306909300019B
:100810000E941306909301010895622F0E9413060F
:10082000909302010E941306909303010895813072
:10083000910539F018F0029731F008951092930164
:10084000089581E003C08091930180958093930186
:1008500008951F920F920FB60F9211240BB60F92AC
:100860002F933F934F935F936F937F938F939F93B8
:10087000AF93BF93EF93FF9380919201843059F42B
:1008800080919301882311F080EC01C080ED8BBB37
:10089000109292010CC0E82FF0E0E050FF4F608111
:1008A0000E94D003809192018F5F80939201FF910B
:1008B000EF91BF91AF919F918F917F916F915F91D8
:1008C0004F913F912F910F900BBE0F900FBE0F9045
:1008D0001F901895E09197018CE08E9FF0011124F4
:1008E000EC5FFE4F90819BBBE09197018E9FF001E2
:1008F0001124EC5FFE4F918195BBE09197018E9F93
:10090000F0011124EC5FFE4F9281906393B9E09166
:1009100097018E9FF0011124EC5FFE4F838180933D
:10092000620008951F920F920FB60F9211240BB61A
:100930000F922F933F934F935F936F937F938F9378
:100940009F93AF93BF93EF93FF93E09197014CE098
:10095000E49FF0011124EC5FFE4F8581811105C0F9
:100960008091960187FF4DC03AC040E05CE021E0F5
:1009700030E0E09197015E9FF0011124EC5FFE4FA3
:100980008581481768F770919701842F90E06091F6
:100990009701FC01EE0FFF1FE80FF91F569FE00DB6
:1009A000F11D1124EC5FFE4FA681B7816C91019679
:1009B000FC01EE0FFF1F8E0F9F1FFC01579FE00DE4
:1009C000F11D1124EC5FFE4FC901058002C0880FA4
:1009D000991F0A94E2F786278C934F5FCACF9091B4
:1009E000620082E08927809362008091620081FF2B
:1009F00004C0809162008B7F08C080916200846097
:100A000004C09091620088E0892780936200809101
:100A1000960180FF27C0809198018F5F8093980195
:100A200020919801E09197018CE0E89FF00111245A
:100A3000EC5FFE4F848130E044E0849FC0011124CC
:100A4000281739077CF0809197018F5F8093970179
:100A5000809197018A3010F0109297010E946A04E9
:100A600010929801FF91EF91BF91AF919F918F915B
:100A70007F916F915F914F913F912F910F900BBE9E
:100A80000F900FBE0F901F9018951F920F920FB6E8
:100A90000F9211240BB60F922F933F934F935F93B6
:100AA0006F937F938F939F93AF93BF93EF93FF9336
:100AB000CF93DF9300D000D0CDB7DEB78091630035
:100AC00081FF1FC00E946A0488E891E00E948E01A5
:100AD00060919701CE0101960E946700CE010196B8
:100AE0000E948E01809197018F5F80939701809182
:100AF00097018A3010F0109297018091630081FD78
:100B0000FCCF0C9905C0809196018260809396017C
:100B10000D9905C0809196018460809396010F9095
:100B20000F900F900F90DF91CF91FF91EF91BF91B8
:100B3000AF919F918F917F916F915F914F913F9175
:100B40002F910F900BBE0F900FBE0F901F90189516
:100B500087E690E00E947D018FEF8ABB84BB8CEC1E
:100B600082B98FE08093610080E383B9109297018E
:100B70001092980181E0809396018091630022E4B5
:100B80003FE03BBD2ABD2AE136E039BD28BD9DE0EE
:100B90009EBD82FF02C088E001C088E187BF7894D3
:100BA0000E946A0491E021E031E08091960181FF8A
:100BB0001BC08091960180688093960140919701B7
:100BC0008091960182FB882780F9891711F04830BF
:100BD000A9F7809196018E7F80939601809196016E
:100BE00082FFFCCF309396018091960182FFDDCF8A
:100BF0008091960180688093960140919701809141
:100C0000960186958170891711F04830B1F780916F
:100C100096018E7F809396018091960181FFFCCF93
:100C200020939601C2CF991B79E004C0991F9617B3
:100C300008F0961B881F7A95C9F780950895AA1B1E
:100C4000BB1B51E107C0AA1FBB1FA617B70710F0B7
:100C5000A61BB70B881F991F5A95A9F780959095E9
:100C6000BC01CD010895A1E21A2EAA1BBB1BFD01F8
:100C70000DC0AA1FBB1FEE1FFF1FA217B307E4077B
:100C8000F50720F0A21BB30BE40BF50B661F771FD3
:100C9000881F991F1A9469F76095709580959095B3
:100CA0009B01AC01BD01CF0108950E946006A59F84
:100CB000900DB49F900DA49F800D911D1124089557
:100CC000A29FB001B39FC001A39F700D811D11248D
:100CD000911DB29F700D811D1124911D0895F894EE
:020CE000FFCF44
:100CE2000A0A0A0A892444000100000000000000E8
:100CF200992544000200000000000000612648001F
:100D020005000000000000005125480002023B00DF
:100D1200062300038B2444000200000000000000B0
:100D22008C24440105000000000000008A244401D4
:100D32000201620000000000896C44000100000012
:100D420000000000899084000500000000000000FF
:100D5200894884000201230007000000450E0D0BA4
:100D620016151326252346430A0D53746174653AFA
:020D720000007F
:00000001FF
