:100000000C9446000C9465000C9465000C946500FB
:100010000C9465000C9465000C9465000C946500CC
:100020000C9465000C9465000C9465000C946500BC
:100030000C9465000C9465000C9465000C946201AE
:100040000C9465000C9465000C9465000C9465009C
:100050000C9465000C9465000C9465000C9465008C
:100060000C9465000C9465000C9465000C9465007C
:100070000C9465000C9465000C9465000C9465006C
:100080000C9465000C9465000C94650011241FBE4F
:10009000CFEFD0E1DEBFCDBF11E0A0E0B1E0E8E6F8
:1000A000F4E000E00BBF02C007900D92AA31B10747
:1000B000D9F721E0AAE1B1E001C01D92AC31B2074D
:1000C000E1F70E94A3010C9432020C94000093B15A
:1000D0009F70282F207F922B93B9E2E6F0E0908169
:1000E00098609083000000009081977F908323B1F7
:1000F0002F7030E1839FC0011124822B83B980814E
:1001000088608083000000008081877F808308955D
:10011000E2E6F0E090819D7F90830E9467008FE38C
:100120009FE10197F1F700C00000089582B1806F50
:1001300082B9E1E6F0E080818E6080832FEF89EF65
:1001400090E0215080409040E1F700C0000082E044
:100150000E94880088E20E9488008CE00E9488004B
:1001600086E00E94880081E00C94880081E00E9473
:1001700088008FE39FE10197F1F700C0000080E85D
:100180000C948800E2E6F0E09081926090830E94F7
:1001900067008FE39FE10197F1F700C00000089529
:1001A000CF93DF93EC018991882319F00E94C2005C
:1001B000FACFDF91CF910895CF93DF93982F862FB9
:1001C000EA01911104C06031A8F4806811C0913037
:1001D00021F4603178F4806C0BC0923021F46031EE
:1001E00048F4806905C0933029F4603118F4806DBB
:1001F0000E948800CE01DF91CF910C94D0008FEF48
:100200008ABB88E281BF8FE083BF82E087BF78949A
:1002100008956F7020E1829FC0011124862B8068B1
:100220008BBB0895CF93DF93EC01E0E0F1E02AE08F
:1002300030E0B9010E941E028083CB01B9010E9407
:100240001E028183CE0164E670E00E941E02CB0193
:10025000B9010E941E028283CE0168EE73E00E9403
:100260001E02CB01B9010E941E028383DF91CF9150
:1002700008952AE0672B51F0622F0E94120290939A
:1002800000010E941202909301010895622F0E94C2
:100290001202909302010E941202909303010895AA
:1002A0008130910539F018F0029731F008951092DD
:1002B0001B01089581E003C080911B01809580930C
:1002C0001B0108951F920F920FB60F9211240BB6C7
:1002D0000F922F933F934F935F936F937F938F93DF
:1002E0009F93AF93BF93EF93FF9380911A01843054
:1002F00059F480911B01882311F080EC01C080ED3E
:100300008BBB10921A010CC0E82FF0E0E050FF4FB9
:1003100060810E94090180911A018F5F80931A0108
:10032000FF91EF91BF91AF919F918F917F916F91CD
:100330005F914F913F912F910F900BBE0F900FBE89
:100340000F901F90189580EF87BB0E94FF002FEF42
:1003500089E698E1215080409040E1F700C000001C
:1003600082ED94E00E9412012FEF89E698E121507E
:1003700080409040E1F700C0000060E070E082E360
:100380000E94390161E070E08BE40E9439012FEF97
:1003900089E698E1215080409040E1F700C00000DC
:1003A00081E090E00E9450012FEF89E698E1215012
:1003B00080409040E1F700C0000080E090E00E94A3
:1003C00050012FEF89E698E1215080409040E1F7FD
:1003D00000C000000E94960044E051E060E080E030
:1003E0000E94DC004AE051E060E081E00E94DC0015
:1003F0004DE051E060E082E00E94DC0043E151E02A
:1004000060E083E00E94DC0082E090E00E94500106
:100410002FEF89E698E1215080409040E1F700C03D
:100420000000F2CF991B79E004C0991F961708F0DD
:10043000961B881F7A95C9F780950895AA1BBB1B48
:1004400051E107C0AA1FBB1FA617B70710F0A61BD4
:10045000B70B881F991F5A95A9F780959095BC01F5
:08046000CD010895F894FFCFCF
:100468000A0A0A0A48454C4C4F004D49004C494E6F
:0A0478004533004C494E45340000A6
:00000001FF
