:100000000C9446000C9465000C9465000C946500FB
:100010000C9465000C9465000C9465000C946500CC
:100020000C9465000C9465000C9465000C946500BC
:100030000C9465000C9465000C9465000C9495027A
:100040000C9465000C9465000C9465000C9465009C
:100050000C9465000C9465000C9465000C9465008C
:100060000C9465000C9465000C9465000C9465007C
:100070000C9465000C9465000C9465000C9465006C
:100080000C9465000C9465000C94650011241FBE4F
:10009000CFEFD0E1DEBFCDBF11E0A0E0B1E0ECE8F2
:1000A000F6E000E00BBF02C007900D92A232B1074C
:1000B000D9F721E0A2E2B1E001C01D92A432B2075B
:1000C000E1F70E94D6020C9444030C940000FC015A
:1000D000862F643680F064E60E94240320E3280F14
:1000E0002083892F6AE00E942403805D8183905DD4
:1000F0009283138208956A3048F06AE00E942403D4
:10010000805D8083905D918312820895805D8083FD
:100110001182089588E784BB089583E041E050E0B0
:1001200091E0980F9A0101C0220F8A95EAF725BB4A
:10013000EFE1FEE43197F1F700C0000083B39730A0
:1001400008F093E0282F2770273011F4892FE8CF8B
:1001500093B397709730E1F7FFEF20E732E0F1506B
:1001600020403040E1F700C000008F770895DF9213
:10017000EF92FF920F931F93CF93DF93CDB7DEB72C
:100180002C970FB6F894DEBF0FBECDBF7C018CE07C
:10019000E4E0F1E0DE01119601900D928A95E1F71D
:1001A000162F03E28AE2D82E112321F10E948D003E
:1001B0002CE09FEF920F9F3FD9F0E1E0F0E0EC0FD1
:1001C000FD1FE90FF11D3081831310C09A3019F41F
:1001D000F701D08208C09B3019F4F701008303C0F7
:1001E000215DF7012083FFEFEF1AFF0A292FE1CFEE
:1001F0001150DACF2C960FB6F894DEBF0FBECDBFEC
:10020000DF91CF911F910F91FF90EF90DF900895B4
:100210001F93CF93DF93CDB7DEB72C970FB6F8942B
:10022000DEBF0FBECDBF8CE0E4E0F1E0DE01119651
:1002300001900D928A95E1F70E948D009CE02FEFCE
:10024000290F9923A9F0E1E0F0E0EC0FFD1FE20F88
:10025000F11D308183130AC02A3029F02B3029F098
:100260001FE2190F03C01AE201C013E2922FE7CF79
:10027000812F2C960FB6F894DEBF0FBECDBFDF9155
:10028000CF911F910895EF92FF920F931F93CF93F9
:10029000DF9300D000D000D0CDB7DEB77C0110E0F6
:1002A0000E94080190ED980F9A3078F401E0010F58
:1002B000E1E0F0E0EC0FFD1FE10FF11D8083E114A0
:1002C000F10449F1F701099526C0833211F0163087
:1002D00038F341E050E080E090E06AE01150E1E066
:1002E000F0E0EC0FFD1FE10FF11D208130E0205305
:1002F0003109249FF001259FF00D349FF00D11244A
:100300008E0F9F1F9A01629FA001639F500D1124C1
:100310001111E4CF02C0102FDACF26960FB6F89451
:10032000DEBF0FBECDBFDF91CF911F910F91FF9028
:10033000EF90089593B19F70282F207F922B93B94F
:10034000E2E6F0E0908198609083000000009081E8
:10035000977F908323B12F7030E1839FC0011124D8
:10036000822B83B9808188608083000000008081B7
:10037000877F80830895E2E6F0E090819D7F9083FF
:100380000E949A018FE39FE10197F1F700C00000FE
:10039000089582B1806F82B9E1E6F0E080818E60DD
:1003A00080832FEF89EF90E0215080409040E1F76B
:1003B00000C0000082E00E94BB0188E20E94BB01F5
:1003C0008CE00E94BB0186E00E94BB0181E00C949E
:1003D000BB0181E00E94BB018FE39FE10197F1F730
:1003E00000C0000080E80C94BB01E2E6F0E09081E0
:1003F000926090830E949A018FE39FE10197F1F749
:1004000000C000000895CF93DF93EC018991882309
:1004100019F00E94F501FACFDF91CF910895CF93A3
:10042000DF93982F862FEA01911104C06031A8F460
:10043000806811C0913021F4603178F4806C0BC079
:10044000923021F4603148F4806905C0933029F47A
:10045000603118F4806D0E94BB01CE01DF91CF9115
:100460000C9403028FEF8ABB88E281BF8FE083BFC9
:1004700082E087BF789408956F7020E1829FC00169
:100480001124862B80688BBB0895CF93DF93EC01FA
:10049000E0E0F1E02AE030E0B9010E94300380831F
:1004A000CB01B9010E9430038183CE0164E670E084
:1004B0000E943003CB01B9010E9430038283CE0138
:1004C00068EE73E00E943003CB01B9010E94300353
:1004D0008383DF91CF9108952AE0672B51F0622F3B
:1004E0000E942403909300010E9424039093010131
:1004F0000895622F0E942403909302010E94240316
:100500009093030108958130910539F018F0029716
:1005100031F0089510922301089581E003C0809185
:10052000230180958093230108951F920F920FB6A7
:100530000F9211240BB60F922F933F934F935F931B
:100540006F937F938F939F93AF93BF93EF93FF939B
:1005500080912201843059F480912301882311F085
:1005600080EC01C080ED8BBB109222010CC0E82F03
:10057000F0E0E050FF4F60810E943C028091220138
:100580008F5F80932201FF91EF91BF91AF919F9177
:100590008F917F916F915F914F913F912F910F902C
:1005A0000BBE0F900FBE0F901F901895CF93DF9347
:1005B000CDB7DEB72C970FB6F894DEBF0FBECDBF18
:1005C00080EF87BB0E9432020E948A0060E070E0E8
:1005D00082E30E946C0261E070E08BE40E946C0296
:1005E0000E94C90140E151E060E080E00E940F02FA
:1005F00060E7CE0107960E946700CE0107960E9431
:10060000030246E151E060E081E00E940F0280E0D9
:1006100090E00E944301682FCE0101960E9467007E
:100620004CE151E060E082E00E940F02CE010196B1
:100630000E9403022FEF81EE94E021508040904011
:10064000E1F700C00000DDCF991B79E004C0991FDD
:10065000961708F0961B881F7A95C9F7809508951C
:10066000AA1BBB1B51E107C0AA1FBB1FA617B707D8
:1006700010F0A61BB70B881F991F5A95A9F78095F4
:0C0680009095BC01CD010895F894FFCFC7
:10068C000A0A0A0A450E0D0B161513262523464396
:10069C0048454C4C4F005354523A2000494E543A62
:0206AC0020002C
:00000001FF
