:100000000C9446000C9465000C9465000C946500FB
:100010000C9465000C9465000C9465000C946500CC
:100020000C9465000C9465000C9465000C946500BC
:100030000C9492040C9448050C9465000C942104D3
:100040000C9465000C9465000C949C010C94650064
:100050000C9465000C9465000C9465000C9465008C
:100060000C9465000C9465000C9465000C9465007C
:100070000C9465000C9465000C9465000C9465006C
:100080000C9465000C9465000C94650011241FBE4F
:10009000CFEFD0E1DEBFCDBF12E0A0E0B1E0EAE9F2
:1000A000FDE000E00BBF02C007900D92A030B10749
:1000B000D9F722E0A0E0B2E001C01D92A730B2075C
:1000C000E1F70E94BC050C94CB060C940000FC01E7
:1000D000862F643678F064E60E946F06805D808328
:1000E000892F6AE00E946F06805D8183905D928314
:1000F000138208956A3048F06AE00E946F06805DBE
:100100008083905D918312820895805D8083118247
:1001100008952F923F924F925F926F927F928F92AB
:100120009F92AF92BF92CF92DF92EF92FF920F9386
:100130001F93CF93DF93EC016A017B014F3F510581
:100140006105710509F008F45BC092E0392E24E6E0
:10015000822E912CA12CB12CC701B601A5019401CE
:100160000E948F06232B242B252B51F03394AAE0D9
:10017000B0E0A50194010E94B1064B015C01ECCFF7
:10018000232CC501B4012AE030E040E050E00E9499
:100190008F0649015A018E018AE0482E512C612CAC
:1001A000712C3A94FFEF3F16A9F0C701B601A501E3
:1001B00094010E948F06205DF80121938F016B014D
:1001C0007C01C501B401A30192010E948F0649017F
:1001D0005A01E7CFC20DD11D1882DF91CF911F9137
:1001E0000F91FF90EF90DF90CF90BF90AF909F90D6
:1001F0008F907F906F905F904F903F902F900895D9
:10020000642FCE01DF91CF911F910F91FF90EF905E
:10021000DF90CF90BF90AF909F908F907F906F9026
:100220005F904F903F902F900C94670077FF0EC027
:10023000FC018DE2819344275527461B570B5F77BE
:10024000662757FD6095762FCF0105C0AB01662765
:1002500057FD6095762F0C948900282FFC018E2F76
:10026000821B91919111FBCF0895CF93DF93D82FEB
:10027000C92F0E942D012FEF280F61E070E08AE066
:10028000215038F0AB01849FB001859F700D11247F
:10029000F7CFED2FFC2F20E030E0CAE0D0E08191D5
:1002A000992787FD9095C097869FA001879F500D45
:1002B000969F500D1124240F351FCB01BE010E94C3
:1002C0007B066115710559F7C901DF91CF9108953A
:1002D00021E030E090E0615048F0A901489F900192
:1002E000499F300D589F300D1124F5CFC901089555
:1002F00089B99093900088E18AB986E0809395004F
:1003000008958CB95D9BFECF08955F9BFECF8CB1A5
:100310000895CF93DF93EC018991882319F00E940F
:100320008101FACFDF91CF910895579A78949093F5
:1003300003028093020208951F920F920FB60F924C
:1003400011240BB60F922F933F934F935F936F93AC
:100350007F938F939F93AF93BF93EF93FF938CB152
:10036000E0910202F09103020995FF91EF91BF9194
:10037000AF919F918F917F916F915F914F913F913D
:100380002F910F900BBE0F900FBE0F901F901895DE
:1003900088E784BB089583E021E030E041E0480F26
:1003A000B90102C0660F771F8A95E2F765BB8FE13E
:1003B0009EE40197F1F700C0000083B3473008F0D6
:1003C00043E0982F9770973011F4842FE7CF93B3C1
:1003D00097709730E1F79FEF20E732E0915020408F
:1003E0003040E1F700C000008F770895DF92EF9270
:1003F000FF920F931F93CF93DF93CDB7DEB72C9768
:100400000FB6F894DEBF0FBECDBF8C018CE0EBEED3
:10041000F1E0DE01119601900D928A95E1F7F62E3A
:1004200083E2E82E9AE2D92EFF2019F10E94CB0137
:100430002CE09FEF920F9F3FD1F0E1E0F0E0EC0F56
:10044000FD1FE90FF11D308183130FC09A3019F49D
:10045000F801D08208C09B3019F4F801E08203C093
:10046000215DF80120830F5F1F4F292FE2CFFA94FF
:10047000DBCF2C960FB6F894DEBF0FBECDBFDF9159
:10048000CF911F910F91FF90EF90DF900895CF9340
:10049000DF93CDB7DEB72C970FB6F894DEBF0FBE53
:1004A000CDBF8CE0EBEEF1E0DE01119601900D92F4
:1004B0008A95E1F70E94CB01382F80E09CE02FEF76
:1004C000290F9923A9F0E1E0F0E0EC0FFD1FE20F06
:1004D000F11D408134130AC02A3029F02B3029F055
:1004E0008FE2890F03C08AE201C083E2922FE7CF37
:1004F0002C960FB6F894DEBF0FBECDBFDF91CF9123
:100500000895EF92FF920F931F93CF93DF9300D044
:1005100000D000D0CDB7DEB78C01F12C0E9447028D
:1005200090ED980F9A3080F4EE24E394EF0CE1E024
:10053000F0E0EC0FFD1FEF0DF11D8083011511059B
:1005400051F1F801099527C0833219F0F5E0FF1544
:1005500028F721E030E080E090E0AAE0FA94E1E0C2
:10056000F0E0EC0FFD1FEF0DF11D408150E0405316
:100570005109249FB001259F700D349F700D1124E7
:10058000860F971FA901A49F9001A59F300D1124EC
:10059000F110E4CF02C0FE2CD9CF26960FB6F89406
:1005A000DEBF0FBECDBFDF91CF911F910F91FF90A6
:1005B000EF90089523B1982F907F2F70922B93B9CD
:1005C000E2E6F0E090819860908300000000908166
:1005D000977F908323B130E1839FC00111242F7056
:1005E000282B23B9808188608083000000008081EF
:1005F000877F80830895E2E6F0E090819D7F90837D
:100600000E94DA028FE39FE10197F1F700C000003A
:10061000089582B1806F82B9E1E6F0E080818E605A
:1006200080832FEF89EF90E0215080409040E1F7E8
:1006300000C0000082E00E94FB0288E20E94FB02F0
:100640008CE00E94FB0286E00E94FB0281E00C9499
:10065000FB0281E00E94FB028FE39FE10197F1F72B
:1006600000C0000080E80C94FB02E2E6F0E090811C
:10067000926090830E94DA028FE39FE10197F1F785
:1006800000C000000895CF93DF93EC018991882387
:1006900019F00E943503FACFDF91CF910895CF93DF
:1006A000DF93982F862FEA01911104C06031A8F4DE
:1006B000806811C0913021F4603178F4806C0BC0F7
:1006C000923021F4603148F4806905C0933029F4F8
:1006D000603118F4806D0E94FB02CE01DF91CF9152
:1006E0000C9443031F93CF93DF93182FC62FD42F5F
:1006F00040E050E00E944F032D2F30E02C0F311DC1
:100700002031310554F06FEF6C0F40E050E0812F45
:10071000DF91CF911F910C944F03DD23A1F380E271
:100720000E943503D150F9CFCF93DF93EB01880FAF
:10073000880F880F805C0E94FB0288810E9435032D
:1007400089810E9435038A810E9435038B810E9432
:1007500035038C810E9435038D810E9435038E8183
:100760000E9435038F810E94350380E8DF91CF918D
:100770000C94FB028FEF8ABB88E281BF8FE083BFBE
:1007800082E087BF78940895E82FF0E0E050FF4FB3
:10079000608308956F7020E1829FC0011124682B4F
:1007A00060686BBB0895FC012AE030E0B9010E944B
:1007B0007B0680930001CB01B9010E947B068093E8
:1007C0000101CF0164E670E00E947B06CB01B90114
:1007D0000E947B0680930201CF0168EE73E00E94C5
:1007E0007B06CB01B9010E947B068093030108952B
:1007F0002AE0672B51F0622F0E946F069093000150
:100800000E946F06909301010895622F0E946F0667
:10081000909302010E946F06909303010895813026
:10082000910539F018F0029731F008951092010205
:10083000089581E003C080910102809580930102B8
:1008400008951F920F920FB60F9211240BB60F92BC
:100850002F933F934F935F936F937F938F939F93C8
:10086000AF93BF93EF93FF9380910002843059F4CC
:1008700080910102882311F080EC01C080ED8BBBD8
:10088000109200020CC0E82FF0E0E050FF4F6081B2
:100890000E94CA03809100028F5F80930002FF9143
:1008A000EF91BF91AF919F918F917F916F915F91E8
:1008B0004F913F912F910F900BBE0F900FBE0F9055
:1008C0001F901895E091040295E19E9FF00111247C
:1008D000EC5FFE4F80818BBBE09104029E9FF00194
:1008E0001124EC5FFE4F818185BBE09104029E9F45
:1008F000F0011124EC5FFE4F8281806383B9A091E7
:100900000402E2E6F0E08081208182702470822B74
:100910009A9FD0011124AC5FBE4F13969C91892BF6
:10092000808308951F920F920FB60F9211240BB679
:100930000F922F933F934F935F936F937F938F9378
:100940009F93AF93BF93EF93FF93E091040245E130
:10095000E49FF0011124EC5FFE4F8581811105C0F9
:100960008091050287FF4CC039C040E055E121E08D
:1009700030E0E09104025E9FF0011124EC5FFE4F35
:100980008581481768F760910402842F90E0FC018C
:10099000EE0FFF1FE80FF91F569FE00DF11D112408
:1009A000EC5FFE4FA681B7816C91709104020196B5
:1009B000FC01EE0FFF1FE80FF91F579FE00DF11D1F
:1009C0001124EC5FFE4FC901058002C0880F991FFA
:1009D0000A94E2F768276C934F5FCBCF8091620057
:1009E00092E08927809362008091620081FF04C0B9
:1009F000809162008B7F08C080916200846004C097
:100A00008091620098E089278093620080910502BE
:100A100080FF2BC08091050286FD27C080910602D1
:100A20008F5F8093060220910602E091040285E127
:100A3000E89FF0011124EC5FFE4F848130E044E038
:100A4000849FC0011124281739077CF0809104028B
:100A50008F5F80930402809104028A3010F010921C
:100A600004020E94620410920602FF91EF91BF916E
:100A7000AF919F918F917F916F915F914F913F9136
:100A80002F910F900BBE0F900FBE0F901F901895D7
:100A90001F920F920FB60F9211240BB60F922F9345
:100AA0003F934F935F936F937F938F939F93AF93F6
:100AB000BF93EF93FF93CF93DF9300D000D0CDB7D8
:100AC000DEB78091630081FF1FC00E94620487EF40
:100AD00091E00E94890160910402CE0101960E947A
:100AE0006700CE0101960E948901809104028F5F08
:100AF00080930402809104028A3010F01092040264
:100B00008091630081FDFCCF0C9905C080910502A6
:100B10008260809305020D9905C080910502846072
:100B2000809305028091630080FF0DC080910502D3
:100B300086FF04C0809105028F7D03C0809105026D
:100B40008062809305020F900F900F900F90DF91BD
:100B5000CF91FF91EF91BF91AF919F918F917F9135
:100B60006F915F914F913F912F910F900BBE0F901E
:100B70000FBE0F901F90189587E690E00E947801B5
:100B80008FEF8ABB84BB8CEC82B98FE080936100CD
:100B900080E383B9109204021092060281E08093F0
:100BA00005022091630082E49FE09BBD8ABD8AE13B
:100BB00096E099BD88BD8DE08EBD22FF02C088E021
:100BC00001C088E187BF78940E946204C1E0DAE046
:100BD0008091050281FF2DC080916200877F809304
:100BE0006200809105028068809305028091040272
:100BF0009091050292FB992790F99C1711F088308B
:100C0000A9F7809105028E7F8093050280910502ED
:100C100082FFFCCF8091050280768093050280914F
:100C2000050281608093050280916200897F809334
:100C300062008091050282FF2CC080916200877F54
:100C40008093620080910502806880930502809104
:100C5000040290910502969591709C1711F08830CE
:100C6000B1F7809105028E7F809305028091050285
:100C700081FFFCCF809105028076809305028091F0
:100C8000050281608093050280916200897F8093D4
:100C900062008091050285FF12C08091050280FFED
:100CA00097CF80910402811193CFD09304020E94C8
:100CB00062048091050280648093050289CF80914F
:100CC000050286FF85CF10920402109206028091E1
:100CD00005028F7B809305020E94620479CF991BE5
:100CE00079E004C0991F961708F0961B881F7A9523
:100CF000C9F780950895AA1BBB1B51E107C0AA1F25
:100D0000BB1FA617B70710F0A61BB70B881F991FAC
:100D10005A95A9F780959095BC01CD010895A1E25F
:100D20001A2EAA1BBB1BFD010DC0AA1FBB1FEE1F65
:100D3000FF1FA217B307E407F50720F0A21BB30BB0
:100D4000E40BF50B661F771F881F991F1A9469F72C
:100D500060957095809590959B01AC01BD01CF0188
:100D600008950E94BC06A59F900DB49F900DA49F6E
:100D7000800D911D11240895A29FB001B39FC00161
:100D8000A39F700D811D1124911DB29F700D811DB7
:0A0D90001124911D0895F894FFCF7F
:100D9A000A0A0A0A8924440001000000000000002F
:100DAA000000000000000000009925440002000035
:100DBA0000000000000000000000000000006126A2
:100DCA0048000500000000000000000000000000CC
:100DDA000000005125480002023B000623000300E0
:100DEA0000000000000000008B2444000200000004
:100DFA00000000000000000000000000008C2444F5
:100E0A0001050000000000000000000000000000D2
:100E1A0000008A2444010201620000000000000070
:100E2A0000000000000000896C440001000000007E
:100E3A00000000000000000000000000899084000B
:100E4A000500000000000000000000000000000093
:100E5A000089488400020123000700000000000006
:100E6A000000000000000000000001053500003508
:100E7A0000033B00013B0004350006450E0D0B162E
:100E8A00151326252346430A0D53746174653A00E7
:00000001FF
